:100000000C94170E0C94340E0C94340E0C94062998
:100010000C94340E0C94340E0C94340E0C94F32D7A
:100020000C94340E0C94340E0C94340E0C94340E48
:100030000C94340E0C94340E0C94340E0C94340E38
:100040000C94340E0C94340E0C941E320C94340E1A
:100050000C94340E0C94340E0C94340E0C94340E18
:100060000C94340E0C94340E9A21762179217C2143
:100070007F218221852188218B218E21912194212C
:10008000DC2165280D233F248624EF2496259A251C
:100090009E253C26DD264027D421000102060A0FBA
:1000A000161D252F39444F5B6773808D99A5B1BC10
:1000B000C7D1DBE3EAF1F6FAFEFFEC07BE00010F61
:1000C00020D38C1174262873E364F37178668476E8
:1000D0002833C541C941837501728D31097291215F
:1000E0009361CF71C321E77154737D739276DB7195
:1000F000B5712D72A37360225C321542A0761B424B
:10010000647239727B7287724772AC724873607323
:100110006F73897346236F7295736C71AF73BB7382
:10012000CF71C773EB73F9739276AD711174AE76BC
:100130001D746574D373BC76C5419D61C941067356
:1001400070713433D45229549552A452C4528351FD
:1001500073548D5413231E53B9546D23DC52E4524F
:10016000EC527B548354F452CC52BA523154CA5696
:100170003954F854D456445521626C115162FC62D2
:100180008C117B72DB7187720E75AC724873DE76F0
:10019000547302751C759573A771AF738973CF7112
:1001A0002875C7734772AD713675EC7665745A75EC
:1001B000DF734E7574853A7368759D7554739175C8
:1001C0000574D45241544B54F452AB55C452FA56B0
:1001D0009C529F54A754AF545B54DC52C954EC5208
:1001E000E452D15495527B5197540457F854C95551
:1001F000D954C155DB65E655D355F8559C52F05599
:100200000256B3750A563476C154EE540E37407612
:100210001A564C7622565A76125648732A566676E5
:100220001753145754441E472647FE3F7E20002094
:100230000020002000200020002000203CE03F2083
:10024000002000FE3F3E002200220000400070001F
:10025000300030000C0003C00030000C003000C043
:10026000000003000C0030FE1F3E000200020002EE
:100270003FFE3F02000200020002000200023FFEB9
:100280003F003FFE3F7E2002200220023FFE3F7ED5
:1002900020022002200220023FFE3FFE2082208218
:1002A000208220823F823F8227822082208220F289
:1002B00020FE20FE208220FF7F8220823F823F801E
:1002C0000080008000F007800080008000800080B7
:1002D00000800080004001200210042002400180C4
:1002E0000040013E3E1E2002200220FE3FFE2082F2
:1002F0002082208220823FFE3FCE2122224222E223
:1003000023023AFE3BFE3F7E200220022002200212
:10031000200220023C3E3E400180004030703030E0
:10032000303018000400020002338200440038001C
:1003300020002000200020003FFE3FFE00820082BF
:10034000008200823FFE3FFE2082208220C220A247
:100350003F9E3FE03FE0212020202020202220223D
:10036000203EE03FE0212020203CFE3F7E20022076
:1003700002200220041FF80F2000FE3FFE21202053
:100380002020E03FE02320222022E023E02320223F
:10039000203E203E20222022203EE03FE001C03FC0
:1003A000E003E03FE0012000203CE03FE02120208E
:1003B000203CE03FE0012000200020001000100061
:1003C0002000200010000800040006000C001800A7
:1003D00010003CE63FE03FE0012000200038002014
:1003E0000020003CE63F08000E0006000000080068
:1003F0000E0006000E0008000600FE3F8020802050
:100400008020803F803FFE3FFE208220822082208D
:10041000822002208220822082208220823FFE3F92
:10042000FE00820082008200820002003EFE3F7ECB
:1004300020022002200221023F023FFE00FE008037
:100440000080008000803FFE3FFE00800080008032
:1004500000803FFE3FFE00C000A0009000883F8665
:100460003FFE20FE20822082208220823FFE3F7EAF
:1004700000080010000800043FFE3F7E004000809E
:10048000000001003FFE3FFE0082008200820082E9
:1004900000FE00FE00803F803F80008000FE00FEE6
:1004A00000820082008200823FFE3F7E2002200206
:1004B0002402280217FE2FFE3FFE008201820282E4
:1004C0000C8218FE30FE18820C82028201823FFEEE
:1004D0003F7E20002000200020003FFE3F7E1000D5
:1004E0000800040008003FFE3FFE212020203CE0E1
:1004F0003FE0210020003CE03FE0110008001CE04C
:100500003FE0232022203E203EE03FE0232023A0A6
:100510003E603E00260032003E0030E01FE0012039
:100520003CE03F06381E06F801E001E007183E06F1
:1005300038E09FE091209020FCE0FFE011201020A7
:100540001CE01FE013201020FEE0FFFE3FFE012014
:1005500000203CE03FE023E0230022003EE03FE0BB
:10056000110008003CE03FE0110C08043CE03FE0D3
:10057000030003803E603EFE3FFE038002403E20BB
:100580003E2C2220222C3EE03FE0030002003EE011
:100590003FE00320022002E003E0030002003EE00F
:1005A0003F2001F80738012007F807200100813FAC
:1005B000FE3F010001006030E00D000F803D603023
:1005C000FE3F7E10000800040002003FFE3F7E0058
:1005D00002000200020002000200FE3F7E1000083E
:1005E00003040102003FFE3F7E0002000200020001
:1005F000023FFE3FFE20FE20802080208020803FA2
:10060000FE3F2038202C20262023E021FE3FFE2024
:100610000020FC3F0020803FFE3F7E200020002085
:10062000003FFE7F0070FE3FFE208020803F0000E4
:10063000003FFE3FFE200020FC3F0020803FFE7F69
:1006400000600260018000F80F800040032003FE7C
:100650003F8000FE3F7E200220023FFE3FFE2080C2
:100660002080208020803F803FE23FE22122202224
:100670003CFE3FFF2083208220832083200220E055
:100680003F0020E03F0038E03FE021003CE07F00F9
:1006900070E03FE023003E0000E03F0020E03F002C
:1006A00038E07F006000E03FE023003E003EE03F96
:1006B0000003E03F2038E03FE0230022003E003E00
:1006C000E033E00B2006203EE03FEC2320222C22EA
:1006D000E023E0230C22043EE03FEC2120202C3CD0
:1006E000E03FEC2100200C3CE03FE02320222022D0
:1006F0002020FE3FFF00830082008300833FFE3FF7
:100700007F20032002200320033FFE3F7F200120A3
:1007100000200120013FFE3FFE20FE20802083209C
:100720008120803FFE3F7E000200020002000200A6
:100730000300FE33FE330C300C0C0003C0003030DD
:100740000C30180FE410C22022231C1400080014DF
:10075000FE20FE20822082208220823F823F4001B4
:10076000400140014001400140014001FE077E0878
:10077000001000300018000FFE07023C023E02216C
:10078000822042203E201E20E00FE0110030001C9D
:10079000E00FE09FE091009000FCE0FF7E3EFE0154
:1007A0008000FE3F8000C03F3E3FF8077804080409
:1007B000FE3F08040807F807E03C0003E03F00069E
:1007C000E039C00FC008E03F400CC00F063CE03FDE
:1007D0000600FE3FFE010220623C9E3FF2009200B6
:1007E00092009E0092009200F200FE00010F20D3C2
:1007F0009F11B21653534862B4768B6671735323BC
:1008000082327E3297765472A7215C729B11A96165
:100810009472B852C276A4767172D0768B738E7150
:1008200065737F73F8113E23EE42DE76F442EC7678
:10083000A0729973DC71B1738872DC72E373C9734F
:10084000D7738632B271FD736C71F1730B7494724D
:1008500017742574337410728071BE71FA764B74FC
:1008600077749A71087788429A64D64231736E71B0
:100870005B230163576485646164C8646662A6642F
:100880006B641617476324656C11B074F664BE641C
:10089000D464DE741F638F643D62EC64AC621877CD
:1008A000F8610265B065FA426C11E84227639F1156
:1008B00099733C75DC718671C872DC721D72267783
:1008C00018753075FD737A71F173D7739472EA718C
:1008D0001774B1738071347742777774BC72567530
:1008E00062755087CC71D0716077BD736E773F743D
:1008F000016370650C6535627A65C8640372EC75D6
:1009000092659C65A6650B63BC75C865BE642B6269
:10091000D46485642F720265DE75F861D265126653
:10092000FA75066613631C6626663266526648666A
:100930007C773C665E764A658A375F339077766669
:1009400084759E67AA77B867C4778066D2776A662F
:10095000A5634243E047E847FE3F00200020002017
:100960000020002000200020F01F0C0002000200E8
:100970000200FE3F0200020002000200020002002C
:10098000023FC20032000E003000C000003FC00035
:1009900030000E00400030000C0003C00030000C9E
:1009A00000100020002000200010FE0F001000208A
:1009B000002000200010FE0F02000200FE3F8020F9
:1009C00080208020001F0000FE3F42204220422065
:1009D0004420B810000FFE3F020002000200020097
:1009E0000200FE3F3030C00C00030003C00C30306A
:1009F00038C0060001F03F0001C00630380844103E
:100A00008220822082200411080E383006C001FEA8
:100A10003FC00130060E38F03F10001000100010EB
:100A200000F03F10001000100010001000FE0F102A
:100A3000101020102001F80720012001F8072001E4
:100A4000800080008000F00780008000800080002F
:100A5000800080008000F83F84008200820003C094
:100A60000230020C02FE3F00020002200C18F007C8
:100A70000C180220FE3F02200220022002200C1847
:100A8000F0070C180220022002200C18F007C809F9
:100A900024124411E4130814F003000C0030003059
:100AA000000CF00308200420FE3F0020002000205E
:100AB0000020FE3F0060F03F0C2002200220FE3F9D
:100AC0000060022002200220FE3F422042204220FD
:100AD0004220022002203C1E4001800040012002F2
:100AE000100420024001800040013C1E02201E1024
:100AF0002110211021E01F0020C01F200010001035
:100B000000F03F002100210021001EF03F200010D6
:100B1000001000200010001000200020001000082D
:100B200000040002000400080010004030300C00F7
:100B3000120012000C0010002000200010F60F0818
:100B400000060000000800060008000600E03F065E
:100B500000180FA410422042204220A410180FE4D5
:100B600010C22022231C14000800147808841002EC
:100B700021022102210411F80F4410422042204298
:100B8000208410080FF83F04010201020102010451
:100B900001F83F04008220E4201811000EF0070C39
:100BA000180220022002200C1810040C1882208247
:100BB0002082208C18F0070C180220022002230C3F
:100BC000191007FE3F40004000400040004000FE7A
:100BD0003F420042004200420002000200FE3F1875
:100BE000006000800160001800FE3F40006000903F
:100BF0000088000403023CFE3F0C003000C00000EF
:100C000003000CFE3F020102010201020184007890
:100C100000F0070C180220022202240C18F027FE14
:100C20003F020102010201020184067838840602B3
:100C300001020102010201FE3F000C0003C000009E
:100C400003000CFE3F2010202020204020801F4069
:100C500020202020202010FE3F20002000200040E7
:100C600000803F02300C0C3003C00030030C0C023B
:100C700030C00F20101020102020104008A01010AD
:100C80002110212012400C003000C0000003000C95
:100C90000030C0072088109010902048F03F2000BE
:100CA0001000E03F10001000E03FC00F20101020A7
:100CB00010202010C00F2011102110212011C00978
:100CC000F0FF2008101010102008C0072008101096
:100CD00010102008F0FF0060F01F0020002000200E
:100CE0000010F03F2000100010001000E03FF0075F
:100CF0000088009000900048F03F102110219021C2
:100D00006012000CFE3F0018000680016000180011
:100D1000FE3F00018001400220040038FE3F001821
:100D20000106820161001800FE3F4220422042205D
:100D300042208210000F201E162110211621E01FD4
:100D400000207E0080000001000100010001FE3F44
:100D500000200020F83F00200020FE3FFC0F421042
:100D6000212021204110800F4110212021204210FC
:100D7000FC0F01100020002000200110FC0FF03FAC
:100D80000010000C00028001F03F0410080C080263
:100D90008401F03F00018001400220041038102C33
:100DA0001022102190207020F03FC0000003000CA2
:100DB0000003C000F03F0001000100010001F03F0E
:100DC000002000200020F03F0060C007200820081D
:100DD000F03F20082008C0074008201010201020F5
:100DE0001021A012400CF03F00200020E03F002026
:100DF0000020F03F0020E03F0020F03F0060F001C5
:100E00000002000200020002F03F00210021001E4B
:100E10000000F03F0021002100210021001E4008B9
:100E20002010102110212011C00F26111021102197
:100E30002611C009C0382005100210021002F03F30
:100E40000001E01F10201020E01FF03F0901040105
:100E5000040104010901F03F10001000100010000F
:100E60001C00C00F2610102010202610C00F2011CB
:100E7000102110212010400830140C0803C010303D
:100E8000280C10400240028001F00F800140024017
:100E9000020C021002204220622092100E0FFE333C
:100EA0007C108220FF7F8220FF7F8220041F183861
:100EB0000424022202210221842078303E0C2210D8
:100EC0002220222022204210820F400140014001B6
:100ED00040014001400140011800040002000233BB
:100EE000820044003800FE010006001800200018AF
:100EF0000006FE01023802260221C22022201A200A
:100F00000620E63FF00F00100020F01F0020001028
:100F1000F00F080C0410022042204220A410180FE9
:100F20003E0840108020802080208010FE0FF801B5
:100F300004020402FE3F04020402F801FE3F002006
:100F40000020F83F00200020FE3F0060FE3F802090
:100F50008020802080200011000EFE3F8000F80FCE
:100F6000041002200410F80FFC3F85208420842008
:100F70008420052004200520FC3F0520E0071918E7
:100F80000420042004201918E007F01F0620002088
:100F900000200610F03F3E08401081208220812072
:100FA0008010FE0FF0070488089008900448F03F76
:100FB000F0078C188220822082200C181004FC3F3D
:100FC000040004000400040004000700C400A200A0
:100FD00092008C00420092009A006600010000001E
:100FE0000A00000064000000E80300001027000071
:100FF000A086010040420F008096980000E1F505B0
:1010000000CA9A3B00010102030405060007080913
:101010000A0B0C020D0E0F10111213020014150210
:101020000A16171800191A02001B1C021D1E1F2089
:1010300021211D1E2223242526272827292A2B2C5F
:10104000292A2D2E2F302D2731322D2E31323325C6
:10105000292728272230332522302D2E21343521EF
:1010600021212134363738393A3B3C3D3E3F40411F
:101070003E3F42434445423D464742434647483946
:101080003E3B3C3D364548393645424321494A219D
:10109000212121494B4C4C4D4E4F4F5051525354EE
:1010A0005155565758595A5B5C5D5E575F60614DAC
:1010B000626364654B66674D4B6869571D6A6B20B8
:1010C0002121216C00C0F0F8FC7C3E1E1E3E7CFC01
:1010D000F8F0C00000FFFFFFFF000000000000FF6D
:1010E000FFFFFF0000030F1F3F3E7C78787C3E3FF0
:1010F0001F0F0300000080C0E0F0F8FCFEFE0000BF
:1011000000000000000001010101FFFFFFFF0000DF
:1011100000000000000000000000FFFFFFFF0000D3
:10112000000000000000787878787F7F7F7F7878F3
:1011300078780000000101010100000080C0F0FF8C
:10114000FF7F1F000000C0F0F8FC7E3F1F0F070369
:1011500001000000007F7F7F7F7978787878787E43
:101160007E7E7E00007E7E7E7E1E1E1E1E1E1EFE5B
:10117000FEFEFE0000000000000060F0F8FCFEFF34
:101180009F0F0700008080808000000001030FFF98
:10119000FFFEF800000000000000000080E0F8FE04
:1011A000FE0000000000000080E0F8FE3FFFFFFFAF
:1011B000FF00000000E0F8FEFFEFE3E0E0FFFFFFCC
:1011C000FFE0E0000001010101010101017F7F7FDB
:1011D0007F01010000FEFEFEFE1E1E1E1E1E1E7E64
:1011E0007E7E7E00007F7F7F7F78787878F8F0F0D1
:1011F000E0C000000080808080000000000001FF4F
:10120000FFFFFF0000FFFFFFFFF0F0F0F0F0E0E075
:10121000C080000000FFFFFFFF000000000103FF8F
:10122000FFFFFE00000000000000000080F0FEFF55
:10123000FF3F070000000000000080F8FFFFFF1FD5
:10124000010000000000000000007F7F7F7F0100A0
:101250000000000000079FFFFFFCF8F0F0F8FCFF23
:10126000FF9F070000FEFFFFFF030100000103FFD7
:10127000FFFFFE00001F7FFFFFF0E0C0C0C0C0FF07
:10128000FFFFFF000000000001010303030303FF51
:10129000FFFFFF0000000000000080C0C0800000D1
:1012A00000000000000000000003070F0F0703000C
:1012B000000000000000000000C0E0F0F0E0C0000E
:1012C0000000000000000000000001030301000016
:1012D000000000000000000000000000000000000E
:1012E0000000000000F2E6CE0E0E0E0E0E0E0602FC
:1012F000F8FCFE00007F3F1F00000000000000001F
:101300001F3F7F0000FFFEFC000000000000000007
:10131000FCFEFF00005F4F6770707070707060407F
:101320001F3F7F00000000000000000000000000E0
:10133000F8FCFE00000000000000000000000000BB
:101340001F3F7F00000000000000000000000000C0
:10135000FCFEFF000002060E0E0E0E0E0E0E060222
:10136000F8FCFE0000000080C0C0C0C0C0C0C0C00B
:101370009F3F7F0000FFFEFC01010101010101010F
:1013800000000000005F4F67707070707070604008
:101390000000000000000000010101010101010145
:1013A000FCFEFF0000404060707070707070604024
:1013B0001F3F7F0000F0E0C00000000000000000C0
:1013C000F8FCFE00007F3F9FC0C0C0C0C0C0C0C0CE
:1013D0009F3F7F0000F2E6CE0E0E0E0E0E0E0602AE
:1013E00000000000007F3F9FC0C0C0C0C0C0C0C0A0
:1013F0008000000000FFFEFC01010101010101016C
:10140000FCFEFF000000000000000E0E0E0E0000AB
:10141000000000000000000000007070707000000C
:101420000000000000F8FCFEFEFE0E0E0E0E0E0E7A
:10143000FEFEFC0000FFFFFFFF7F00000000000039
:10144000FFFFFF0000FFFFFF000000000000FEFFA5
:10145000FFFFFF00003F7F7F7070707070707F7FB4
:101460007F3F1F000000000000000000000000009F
:10147000FCFEFC00000000000000000000000080F6
:10148000FFFFFF0000000000000000000000FFFF61
:10149000FFFFFF00000000000000000000003F7F91
:1014A0007F3F1F0000080C0E0E0E0E0E0E0E0E0ECD
:1014B000FEFEFC00000080C0C0C0C0C0C0C0C0C0F4
:1014C000FFFFFF0000FFFFFF03030303030303030A
:1014D00003010000003F7F7F70707070707070704B
:1014E0007030100000000103030303030303FFFF38
:1014F000FFFFFF00003070707070707070707F7F41
:101500007F3F1F0000F8FCFEFEFC00000000000012
:10151000FEFEFC0000FFFFFFFFFFC0C0C0C0C0C058
:10152000FFFFFF0000F8FCFEFEFE0E0E0E0E0E0E7C
:101530000E0E0C0000FFFFFFFFFFC0C0C0C0C0C008
:10154000C080000000FFFFFF030303030303FFFF4E
:10155000FFFFFF00000000000000040E0E0400006A
:10156000000000000000000000002070702000005B
:101570000000000000F0FCFE3E0E0E0E0E0E0E3EB1
:10158000FEFCF00000FFFFFF000000000000000074
:10159000FFFFFF00000F3F7F7C7070707070707CE9
:1015A0007F3F0F00000000000030FCFEFEFC00004A
:1015B0000000000000000000000000FFFFFF00002E
:1015C00000000000000020707070707F7F7F7070DE
:1015D0007020000000307C7E3E0E0E0E0E0E0E3E81
:1015E000FEFCF00000000000000000008080C0F061
:1015F000FFFF3F0000E0F8FC7E1E0F0F070703030C
:1016000001000000003F7F7F787070707070707014
:1016100078783000000000000080C0C0C0C0C0F07A
:10162000FFFF3F0000000000000001010101010771
:10163000FFFFFE00000C3E7E7C7070707070707C4E
:101640007F3F0F000000000000000080E0F8FCFE7B
:10165000FC00000000000080E0F87E1F0701FFFF93
:10166000FF00000000183E3F3F3938383838FFFF90
:10167000FF381000000000000000000000003F7F65
:101680003F00000000FCFEFE1E0E0E0E0E0E0E0EA3
:101690001E1E0C00003FFFFFF0C0C0C0C0C0C0C095
:1016A000C0800000000000010101010101010107EB
:1016B000FFFFFE0000F0FCFE3E0E0E0E0E0E0E3E74
:1016C0007E7C300000FFFFFFC0C0C0C0C0C0C0C0F3
:1016D000C080000000FFFFFF0101010101010107BF
:1016E000FFFFFE00000C1E1E0E0E0E0E0E0E0E0E46
:1016F000FEFEFC0000000000000000000080E0FC96
:10170000FF3F070000000000000000F0FEFF1F0385
:1017100000000000000000000000003F7F3F0000CC
:1017200000000000003FFFFFF0C0C0C0C0C0C0F01C
:10173000FFFF3F0000FEFFFF07010101010101075C
:10174000FFFFFE00003FFFFFF0C0C0C0C0C0C0C030
:10175000FFFFFF0000000001010101010101010183
:10176000FFFFFF00000000000000070F0F07000050
:1017700000000000000000000000E0F0F0E00000C9
:10178000000000000000000000001E3F3F1E00009F
:101790000000000078192018801928188F193718B0
:1017A000A1194918A6194C18B0195618BF19641870
:1017B000C319C319CB19CB19CE196818D619D61964
:1017C000DA197218DE197718E4197D18E919000082
:1017D000F7194019051A8118141A8F18221A9D1822
:1017E000331AB118441AC318561AD518641AE718D0
:1017F000701AF2187A1AFF188A1A0F19931A1E19FA
:101800009C1A3019A51A4B19AC1A5219B31A581947
:10181000BA1A5E19C11A6419C81A6A19CF1A71194D
:1018200090B3B1B1AAA8A90090AEB1B1A8BF2C20C5
:1018300091A0ACA0B0A0008FAEA3B0A5A1ADBFAAEF
:101840002084ACA8B2B0A8A900AEB2008FB0AEB8E8
:10185000A8A2AAA03A008AA0ABA8A1B0AEA2AAA052
:101860002E2E2E00AA83B600B1A5AA2FB1B3B2AA1C
:10187000A80084A5ADBC008CA5B1BFB60083AEA402
:10188000008AA0ABA8A1B0AEA2AAA020968F009219
:10189000A5ACAFA5B02EAAAEBDB4B42E008AA0AB45
:1018A000A8A1B02E74D120AAB0A8B1B2A0ABABA0B1
:1018B000009FB0AAAEB1B2BC2028A0ABBCB2A5B00C
:1018C0002E29009FB0AAAEB1B2BC2028AEB1ADAEF9
:1018D000A2AD2E290082A8A7B3A0ABBCADBBA920A6
:1018E000BDB4B4A5AAB20091B2A8ABBC20B6A8B44E
:1018F000B00098B0A8B4B220B2A5AAB1B2A0008A34
:10190000A0ABA8A1B0AEA2AAA020B5AEA4A000939F
:10191000B1B2A0ADAEA2AAA020A4A0B2BB0093B168
:10192000B2A0ADAEA2AAA020A2B0A5ACA5ADA80061
:101930009FA7BBAA202F204C616E67756167650069
:1019400091AEB5B0A0ADA8B2BC3F00828E918A9096
:101950002E00919381812E008F9F928D2E0097856E
:1019600092822E0091908584800082928E908D2E9E
:10197000008F8E8D85842E00456E676C69736800BC
:101980005275737369612C2053616D6172610050EF
:101990006F677265626E79616B20446D69747279EC
:1019A0000066726F6D004669726D776172653A000C
:1019B00043616C6962726174696F6E2E2E2E006BCA
:1019C000487A0070706D2FD143D200D14300736507
:1019D000632F6461790070706D00446179004D6F10
:1019E0006E74680059656172004142432C78797ABF
:1019F0002E30313233210053617665206368616E89
:101A00006765733F004350552073706565642063BC
:101A1000616C2E00546865726D616C206B6F656639
:101A20002E004372797374616C6C2074D1206361F1
:101A30006C2E004272696768746E6573732028614A
:101A40006C7429004272696768746E65737320282C
:101A50006D61696E290056697375616C20656666F3
:101A60006563740044696769747320666F6E7400FF
:101A70005465787420666F6E7400436C6F636B20DE
:101A800063616C696272617465005365742064619E
:101A90007465005365742074696D65004C616E67F0
:101AA000756167650053554E444159005341545583
:101AB00052440046524944415900544855525344F7
:101AC000005745444E455300545545534459004D25
:101AD0004F4E4441590000C000C0C000C0C0C0FC0F
:101AE000F8F0E0C080000003000303000303033F9D
:101AF0001F0F0703010000003078FCFE303030700B
:101B0000E0C000000000000000000031303030383C
:101B10001F0F00000000000000000080C000000057
:101B200000FCFC000000000000060F1F3F06060638
:101B30000703010000000000C0800000000080C01A
:101B4000E030180C000000000103071E3E1F0701D3
:101B500000000000000000000C1C3870E0C0E0F045
:101B6000381C0C00000000000030381E0703010381
:101B700007060C1C0000000080C0E0F0F8FCFCF838
:101B8000F0E0C08000000000000000003F3F3F3F49
:101B900000000000000000000000000000FCFCFC51
:101BA000FC00000000000000000103070F1F3F3F82
:101BB0001F0F070301000000000060C080FEFE80D0
:101BC000C06000000000006058444445475F5F4724
:101BD00045444458600000C0300844041202029298
:101BE00044640830C0000023120A12621A22432201
:101BF0001A224222130004181C181818141810185E
:101C00000C1808185254430001AB0012041B0002C8
:101C1000050A10171F2833404D5C6C7D90A3B8CF88
:101C2000E7FF000303060104060205000305112473
:101C30001FBECFEFD8E0DEBFCDBF11E0A0E0B1E026
:101C4000EAEFF6E602C005900D92AC30B107D9F785
:101C500021E0ACE0B1E001C01D92AF35B207E1F781
:101C60000E949E280C947B330C94000053985B9A3E
:101C700054985C9A0895CF930E94912B4B9B21C05E
:101C800080911C018823A9F087E191E00E94B92C82
:101C90008823A1F1C1E080911C01813009F0C0E0EE
:101CA00010921C0160E27EE487E191E00E94AA2C80
:101CB00028C060E27EE487E191E00E94AA2CC0E0A7
:101CC00020C080911C01811111C087E191E00E9428
:101CD000B92C8823A9F081E080931C0160E47FE1A6
:101CE00087E191E00E94AA2CC0E00BC060E47FE194
:101CF00087E191E00E94AA2CC0E003C0C0E001C0CF
:101D0000C0E04C9B1FC0809116018823A1F081E1A7
:101D100091E00E94B92C882379F1809116018130DD
:101D200009F4C1E01092160160E27EE481E191E0E5
:101D30000E94AA2C21C060E27EE481E191E00E9431
:101D4000AA2C1AC080911601811110C081E191E086
:101D50000E94B92C882381F081E08093160160E411
:101D60007FE181E191E00E94AA2C06C060E47FE15E
:101D700081E191E00E94AA2CCC23C1F080910F0157
:101D800084FF07C090911C01913019F492E0909368
:101D90001C0185FF07C090911601913019F492E063
:101DA0009093160110920F0182606DC080911C010A
:101DB000813009F05BC060C080E001C080E18062DA
:101DC00004C010920F0180E05EC090910F0198173F
:101DD00051F080930F019FEF90930D019DE390933D
:101DE0000E01816050C080914D0120911001281397
:101DF00003C0892F836047C08093100180910E013A
:101E0000882331F0815080930E01892F83603BC07D
:101E100080910D018F3F59F48FE080930D018093E5
:101E20000E0181E080930C01892F84602CC02091E9
:101E30000C01222321F0215020930C0110C0282FE7
:101E400030E02D5F3F4F3595279535952795821BBF
:101E500080930D01869528E0281B20930C0180912A
:101E60000D0180930E01892F85600DC080911601B0
:101E7000813009F0A6CFA0CF80911601813009F4FE
:101E80009DCF80E1A2CFCF91089580910F0188234B
:101E900061F080910D018F3F41F08FE080930D0143
:101EA00080930E0181E080930C01089580911C01C4
:101EB000813019F482E080931C01809116018130F9
:101EC00019F482E0809316010895FF920F931F93F7
:101ED000CF93DF938C01D62FF42EC0914D0103C018
:101EE000C82F01C0C82F0E943B0E882321F0982FD5
:101EF0009F70933099F480914D01C81731F001150E
:101F0000110519F00150110941F0DD2349F39091B9
:101F10004E019F1539F380E001C080E0DF91CF9141
:101F20001F910F91FF900895843010F480931D014C
:101F3000089580911D0108959F92AF92BF92CF9214
:101F4000DF92EF92FF920F931F93CF93DF9366235D
:101F50000CF456C0F62E8C3040F0E12C00E020E16D
:101F600044E080E00E944E154CC020911D0130E0FD
:101F70008901000F111F020F131F000F111F000F07
:101F8000111F080F111D000F111F000F111F0C5FF3
:101F90001F4E80E7861720F480E8E82EE61A03C07B
:101FA0006894EE24E4F8912CAA24AA94AE0CB12CE7
:101FB000EFEFAE1ABE0A6F2D892D0E941E188823DE
:101FC00001F1F801C491F0E1CF9FE0011124CC535D
:101FD000DF4EEE2069F06E01CA0CDB1CFE0184911D
:101FE0000E94B416882369F02196CC15DD05B1F75F
:101FF00093940F5F1F4FF4E09F12DDCF81E001C08B
:1020000081E0DF91CF911F910F91FF90EF90DF90D2
:10201000CF90BF90AF909F900895843688F09CE950
:10202000980F943638F098E3980F943630F08C522D
:1020300023E007C0892F21E004C0892F22E001C0DE
:1020400020E08A3038F090E08A509F5F8A30E0F7D5
:10205000911104C091E0411190E09195FB019083B2
:102060008183822F0895809100010895809300015B
:1020700008952F923F924F925F926F927F928F922C
:102080009F92AF92BF92CF92DF92EF92FF920F9307
:102090001F93CF93DF93CDB7DEB7A8970FB6F89411
:1020A000DEBF0FBECDBFE62E498B2090000132E08F
:1020B000231609F407C2321520F041E0241651F02E
:1020C000A9C453E0251609F408C164E0261609F4F2
:1020D000BEC3A0C4222309F4C7C4E22FF0E0E65631
:1020E000FF4F74917E8B8C30D0F420911D0130E035
:1020F000A901440F551F240F351F220F331F220F34
:10210000331FF901E80FF11DCF01880F991F880FC8
:10211000991F9C012C5F3F4E3B8B2A8B02C01B8A70
:102120001A8A3BE03E15C8F080911D0190E04C01F9
:10213000880C991C880D991D880F991F880F991F6D
:102140004C018E0C911CC401880F991F880F991F98
:10215000AC014C5F5F4E4A0102C0812C912C598921
:10216000513720F080E8482E451A03C06894442473
:1021700044F81C8A8E010F5E1F4F6E8961956A8F2D
:10218000A12CBB24B394188E1C8E1D8E3E886989A9
:102190008C890E941E18882309F49BC0FE01319689
:1021A000119211920E171F07D9F78A899B89009700
:1021B00079F00196EA89FB892491F0E12F9F900143
:1021C0001124A9014C535F4E6A019B8B8A8B02C07C
:1021D000C12CD12C5A8CF12CE12C60E0712C612C9B
:1021E000E11026C05FE0571578F481149104B1F036
:1021F000F4018491F0E18F9FC00111249C012C53C4
:102200003F4E6901532C712CC114D10469F0C601F1
:102210000196F601F490E52C6C0108C0EE88712C53
:10222000F88CCC8CDD8C02C0E52CF88C73945E2C81
:10223000462F50E08E2D90E09501241B350B28177A
:1022400039071CF4A62FA19501C0AE2DEA1AFE0194
:10225000319671E02A2F30E08F2D872331F0808175
:102260009181820F931F91838083770F3296E017BD
:10227000F10791F74A0F511D4F3F5105D9F0D4F0A6
:10228000FE01319680E08695DF0120813181203882
:10229000310508F080681D921C9232960E171F07B8
:1022A00091F70E94B4168823B1F06394641420F46B
:1022B00060E096CF6A0F94CF8114910419F0FFEF7C
:1022C0008F1A9F0A2C892F5F2C8B243009F05FCF47
:1022D000CBC3282EC9C3282EC7C3222309F4A0C309
:1022E000E22FF0E0E656FF4F249130E02C5F3F4FA5
:1022F000359527953595279535952795522E5694E2
:1023000056945694422F4770F42E53E05515D8F446
:102310006BE06E15A8F180911D0190E09C01220FE9
:10232000331F820F931F880F991F880F991F8E0DDF
:10233000911D880F991F880F991FFC01EC5FFF4EBC
:102340005F01512C23C08C30F8F420911D0130E046
:10235000A901440F551F240F351F220F331F220FD1
:10236000331FA901480F511DCA01880F991F880FFB
:10237000991F850D911DBC016C5F7F4E5B0106C0EE
:10238000A12CB12C512C02C0A12CB12C7989713710
:1023900020F080E8682E671A03C06894662464F809
:1023A000412C212C8E2D90E09B8B8A8B88E090E035
:1023B0004C018F189108312CA114B10409F436C3D3
:1023C000F5018491F0E18F9FC00111249C012C53F1
:1023D0003F4E6901539433E0351530F04FEFA41AA6
:1023E000B40A1EC0C12CD22C5BE05E1528F180918E
:1023F0001D0190E09C01220F331F820F931F880F55
:10240000991F880F991F6A897B89860F971F880FEC
:10241000991F880F991FFC01EC5FFF4E5F01512C43
:10242000A114B10479F0F5010491F0E10F9F80014E
:1024300011240C531F4E08C0512CA12CB12C00E0CC
:10244000122D02C000E0122D6989842D0E941E18F1
:10245000882309F4FCC2662071F1712CC114D104E7
:1024600039F096012F5F3F4FF6018491690101C059
:10247000832DFF20C1F090E00F2C02C09595879529
:102480000A94E2F70115110571F098012F5F3F4F93
:10249000F801049110E0082C02C0000F111F0A94EB
:1024A000E2F7802B89010E94B416882309F4D1C277
:1024B00073947610D3CF4394F4E04F127DCF22244F
:1024C0002394D2C2222309F4AEC2E22FF0E0E656F2
:1024D000FF4F249130E02C5F3F4F35952795359580
:1024E0002795359527952A8B8C30D0F440911D0186
:1024F00050E0BA01660F771F460F571F440F551F54
:10250000440F551FBA01680F711DCB01880F991F29
:10251000880F991FFC01EC5FFF4EFD8BEC8B02C016
:102520001D8A1C8AFBE0FE15C0F080911D0190E021
:10253000AC01440F551F840F951F880F991F880FFA
:10254000991F8E0D911D880F991F880F991FAC013F
:102550004C5F5F4E5F8B4E8B02C01F8A1E8A59896B
:10256000513720F080E8482E451A03C0689444246F
:1025700044F888E090E0821B9109682F6295607FA3
:102580006D8F8E899F899B8F8A8FEC89FD89F8A337
:10259000EF8FF98FE88F212C1C8E6894FF24F4F8BC
:1025A0003A88F0EF3F0E39A22A8928512AA3AC01BC
:1025B0004E5F5F4F5CA34BA3BC016D5F7F4F7EA35B
:1025C0006DA37F2D8A89781B7E8FEC89FD893196DA
:1025D000F8A7EFA36989822D0E941E18882309F4A9
:1025E0003AC2F1E0F21508F450C02E893F89232B3E
:1025F00061F0EA8DFB8D8491F0E18F9FC001112481
:102600009C012C533F4E690102C0C12CD12C3A8948
:10261000303108F097C0BE8C4C895D89452BA9F0FC
:10262000EF8DF8A10491F0E10F9F800111240C536C
:102630001F4EEFA1F8A58491F0E18F9FC0011124F6
:102640009C012C533F4E490104C0812C912C00E089
:1026500010E0222009F466C03A89383068F44E8DC3
:102660005D8D541708F4ECC1552E712C842F581A27
:1026700073945816E0F7E6C1AA8868EFA60E512CAD
:10268000712C6894EE24E3F858C08C899D89892BBD
:1026900061F0E88DF98D8491F0E18F9FC0011124E4
:1026A0009C012C533F4E690102C0C12CD12C3A89A8
:1026B000313108F447C0B32C4E895F89452BA9F00E
:1026C000EBA1FCA10491F0E10F9F800111240C53B8
:1026D0001F4EEDA1FEA18491F0E18F9FC001112456
:1026E0009C012C533F4E490104C0812C912C00E0E9
:1026F00010E032E02316E9F04A89493118F150E838
:10270000531548F0712C6894552457F85318739456
:102710005314E0F704C0712C6894552457F8EAA0CC
:10272000A12C0BC0AA88512C712C6894EE24E3F8DC
:1027300004C0E9A0512C712CA12CAE1418F4411046
:1027400019C072C0442009F46FC010E0C114D10454
:1027500039F096012F5F3F4FF6018491690101C066
:102760008C8D0E94B416882309F477C11F5F141161
:10277000EDCF5AC0612CC114D10439F096012F5FFE
:102780003F4FF6018491690101C080E001151105F8
:1027900079F0A8014F5F5F4FF8012491B4016F5F9A
:1027A0007F4FF401849030E038294B018A0102C048
:1027B00020E030E0772029F0972D3695279591502D
:1027C000E1F7AA2031F09A2D61E0660F9150E9F708
:1027D00001C061E09F2D95197A2D50E0E0E0911144
:1027E00003C0369527959B2D4F2D451B941708F454
:1027F000492F20FDE40F941B540F503158F0E8305E
:1028000010F0862B03C0462F40958423660F7F5F10
:1028100050E0E0E07E1518F30E94B416882309F416
:102820001EC163944610A7CF23942A8D3B8D2F5F42
:102830003F4F3B8F2A8F488D598D4F5F5F4F598F88
:10284000488F54E02512C6CE222423940DC1F22EC7
:10285000FF0CFF0CFF0C482F50E02E2D30E06DEBED
:1028600077E6469F8001479F100D569F100D11245B
:10287000EDE8F6E52E9FB0012F9F700D3E9F700D85
:102880001124060F171F8C30C0F480911D0190E0B9
:10289000BC01660F771F860F971F880F991F880F3F
:1028A000991F480F591F440F551F440F551FBA0158
:1028B0006C5F7F4E7B8B6A8B02C01B8A1A8A7BE01F
:1028C0007E15B8F080911D0190E0AC01440F551FBA
:1028D000840F951F880F991F880F991F280F391F84
:1028E000220F331F220F331FC9018C5F9F4E4C01F3
:1028F00002C0812C912C9989913720F080E8482ED4
:10290000491A03C06894442444F86894EE24E4F817
:10291000212C0F2EF5E66F2EFFEC7F2EF02D69890E
:10292000822D0E941E18882309F49BC0EA89FB8926
:10293000309779F09F012F5F3F4F8491F0E18F9F97
:10294000C0011124AC014C535F4E6A013B8B2A8BB2
:1029500002C0C12CD12C8114910471F0C4010196E4
:10296000F4012491F0E12F9F90011124A9014C530F
:102970005F4E5A014C0102C0A12CB12C442009F435
:1029800040C00F2EF0EF3F2EF02D3E0C512CC11405
:10299000D10431F0C6010196F60164916C0101C0C9
:1029A00060E0A114B10431F0C5010196F501749104
:1029B0005C0101C070E0432D80E051E098012F5F81
:1029C0003F4F269D8001279D100D369D100D11242F
:1029D000912F96959695292F220F920F940F9F1560
:1029E00010F0962F01C0972F9523892B4E5F550F1E
:1029F0004E11E4CF0E94B4168823A9F153945410C9
:102A0000C6CF2394F0E1EF0E24E0221288CF2224D7
:102A100023942AC069898E2D0E949C0F282E24C0E1
:102A20002224239421C0222423941EC0539433E0F3
:102A3000351508F4D7CCC12CD22C00E0122D04CDD2
:102A40005D8C712C6894EE24E3F8A12C78CE282EAE
:102A50000BC0282E09C0282E07C0282E05C0282EFE
:102A600003C0282E01C0282E822DA8960FB6F894F8
:102A7000DEBF0FBECDBFDF91CF911F910F91FF90B1
:102A8000EF90DF90CF90BF90AF909F908F907F900E
:102A90006F905F904F903F902F900895CF92DF926C
:102AA000EF92FF920F931F93CF93DF93D82F162FA0
:102AB00066230CF44DC0843008F04CC080E8F82E3A
:102AC000F61A2F1508F4F22E242F30E084E090E05F
:102AD0008D1B9109821793071CF0DD2ED40E03C0C5
:102AE0006894DD24D2F8DD15B8F58FEF8F0D912FA6
:102AF0009170C92E10FDF82E612F8D2F0E941E1887
:102B0000882359F1CC2029F08E2D0E94B4168823F9
:102B100021F181E08F1578F4CF2D802F0E94B4161B
:102B20008823D9F08E2D0E94B4168823B1F0C250AC
:102B3000C23098F701C0CF2DCC2329F0802F0E94FE
:102B4000B416882351F0DF5FDD15B0F281E005C0D7
:102B500081E003C081E001C081E0DF91CF911F914E
:102B60000F91FF90EF90DF90CF900895EF920F9329
:102B7000E62E082F20E844E060E080E00E944E1539
:102B80000F91EF90089560E080E00E94B6158823D1
:102B900051F060E080E00E941E1891E0811101C0B8
:102BA00090E0892F089580E008956F927F928F9230
:102BB0009F92AF92BF92CF92DF92EF92FF920F93CC
:102BC0001F93CF93DF93982E662E6A0183E08915B9
:102BD00008F43FC066230CF43EC080E8882E861AB5
:102BE000081508F4802E422F50E084E090E0891907
:102BF0009109841795071CF0792C720E03C0689414
:102C0000772472F8971448F5AA24AA94A80CB12C3A
:102C1000EFEFAE1ABE0A10E0662D892D0E941E1835
:102C20008823E1F0882071F0E6017601EA0CFB1CB4
:102C3000FE0184910E94B416882381F02196EC163F
:102C4000FD06B1F79394C00ED11E971428F381E0CE
:102C500005C081E003C081E001C081E0DF91CF9138
:102C60001F910F91FF90EF90DF90CF90BF90AF90AA
:102C70009F908F907F906F90089580E090E0ECEBB4
:102C8000F0E002C0019739F020812223DCF7809127
:102C9000B900887F089580E008950E943D1694E968
:102CA0009093BC000895CF9320E030E0ECEBF0E08F
:102CB00003C02150310919F18081C82FC07184FDF2
:102CC000F8CF84EA8093BC000E943D16803179F0F1
:102CD000883069F0ECEBF0E080E8808300C084EAA3
:102CE00080830E943D16883011F0803149F488E7D6
:102CF0008093BB0084E88093BC00C1E001C0C0E0C9
:102D00008C2FCF9108959091BC0099232CF40BC087
:102D10002150310929F418C020E030E0ECEBF0E05C
:102D200090819923ACF79091B9008093BB0084E81F
:102D30008093BC00987F983229F081E0983129F087
:102D400080E0089581E0089580E0089510921E01CA
:102D50001092B9001092B80084E08093BC0081E02A
:102D600008951092BC000895CF93DF93D82F8091DF
:102D70001E01811106C00E945316C82F811103C085
:102D80001CC0823071F080E40E948316C82F81112C
:102D900005C00E944D1610921E010FC082E0809364
:102DA0001E018D2F0E948316C82F811105C00E941D
:102DB0004D1610921E0101C0C1E08C2FDF91CF9102
:102DC0000895CF93DF93D82F80911E01813029F091
:102DD0000E945316C82F8823D1F081E080931E01F2
:102DE00080E80E948316C82F811105C00E944D16ED
:102DF00010921E010CC08D2F0E948316C82F8111C6
:102E000005C00E944D1610921E0101C0C1E08C2F1A
:102E1000DF91CF910895CF9380911E018823A1F077
:102E20000E943D16C82F10921E010E944D16882345
:102E300039F0C83239F081E0C83139F080E005C09E
:102E400080E003C081E001C081E0CF910895CF937D
:102E5000C62F0E94E116882349F08C2F0E94E116AC
:102E600091E0811101C090E0892F01C080E0CF91F5
:102E70000895CF930E94A616982F882309F4CBC0FB
:102E800085E090E00E94C62BC6E083EE0E94E1162A
:102E9000982F882309F4BFC0C150B9F70E940B17BF
:102EA000982F882309F4B7C08EEA0E94E116982F64
:102EB000882309F4B0C00E940B17982F882309F4C7
:102EC000AAC084E190E00E94C62B8EE20E94E11627
:102ED000982F882309F49FC06FE188EA0E94271782
:102EE000982F882309F497C060E083ED0E9427178C
:102EF000982F882309F48FC080E40E94E116982F50
:102F0000882309F488C081EA0E94E116982F88235B
:102F100009F481C088EC0E94E116982F882309F4F7
:102F20007AC062E08AED0E942717982F882309F45F
:102F300072C060E881E80E942717982F882309F45F
:102F40006AC084EA0E94E116982F882309F463C0BE
:102F500086EA0E94E116982F882309F45CC060E895
:102F600085ED0E942717982F882309F454C062E248
:102F700089ED0E942717982F882309F44CC062E23C
:102F800080E20E942717982F882309F444C080EB21
:102F90000E94E116982F8823F1F181E20E94E11648
:102FA000982F8823C1F16FE780E00E942717982FA0
:102FB000882389F182E20E94E116982F882359F133
:102FC00063E080E00E942717982F882321F160E2B8
:102FD0008BED0E942717982F8823E9F064E18DE894
:102FE0000E942717982F8823B1F00E940B17982F63
:102FF000882389F00E94C315982F882361F08FEAF7
:103000000E94E116982F882331F00E940B1791E05F
:10301000811101C090E0892FCF910895682F81E838
:103020000E942717882341F00E940B1791E081111D
:1030300001C090E0892F089580E00895CF93C62FB6
:103040008770806B0E94E116882371F06C2F6F707F
:103050008C2F82958F7080610E94271791E08111DB
:1030600001C090E0892F01C080E0CF9108959F9228
:10307000AF92BF92CF92DF92EF92FF920F931F9386
:10308000CF93DF93D62EF42EE901909101016917B9
:1030900008F094C0843008F093C090912101292F4A
:1030A0002170A22EA1949270B92E0E941E18E1FEEA
:1030B0001DC08A2D0E94B416882309F48AC081E0BD
:1030C0008D0D90910101891708F083C0BB2069F034
:1030D0008A2D0E94B416882309F47BC0D394D3941C
:1030E00080910101D81610F06DC0D82EFF2009F490
:1030F00053C010E0FE018491CC2011F082958F70B6
:10310000E82FE270F0E0682F647070E0282F2870DC
:1031100030E08170982F9E2B990F892BEE0FFF1FA7
:10312000EE0FFF1F8E2BFB01EE0FFF1FEE0FFF1F99
:103130008E2B660F771F660F771F660F771F682B22
:10314000C901880F991F880F991F880F991F682B35
:1031500022953295307F3227207F3227262B922EE0
:103160009A24892D0E94B41681E08D0D9091010161
:10317000891778F5BB2051F0892D0E94B416D3949D
:10318000D39480910101D81610F01EC0D82EC00F24
:10319000D11FFA94F110AECFE0FE18C08A2D0E9424
:1031A000B416BB2041F0D39480910101D81680F46D
:1031B0008A2D0E94B41681E08D0D0BC0862F09C0A8
:1031C000862F07C08D2D05C08D2D03C08D2D01C00C
:1031D0008D2DDF91CF911F910F91FF90EF90DF9098
:1031E000CF90BF90AF909F9008959F92AF92BF9263
:1031F000CF92DF92EF92FF920F931F93CF93DF93C3
:10320000D62F142F690190910101691708F068C049
:10321000843008F067C0C09121010E941E188823E5
:1032200009F469C08C2F8170982E9194C270FC2E85
:10323000E1FE1CC0892D0E94B416882309F45BC0EE
:1032400081E08D0F90910101891708F054C0CC23C3
:1032500061F0892D0E94B416882309F44CC0DE5F0A
:1032600080910101D81710F03FC0D82F112311F120
:10327000A02EB12CF601C491C9258C2F0E94B41642
:103280008823C9F181E08D0F90910101891798F58C
:10329000FF2059F08C2F0E94B416882361F1DE5F65
:1032A00080910101D81710F021C0D82FCA0CDB1C67
:1032B000115001F7E0FE1CC0892D0E94B41688232E
:1032C000D1F0FF2051F0DF5F80910101D81790F419
:1032D000892D0E94B416882371F081E08D0F0BC0F8
:1032E000862F09C0862F07C08D2F05C08D2F03C0E4
:1032F0008D2F01C08D2FDF91CF911F910F91FF90E6
:10330000EF90DF90CF90BF90AF909F900895109274
:10331000200110921F011092210180E88093010189
:1033200008959093230180932201089580931F01B3
:1033300060932001089520910101882314F0982FB3
:1033400001C090E890930101822F08959F92AF925F
:10335000BF92CF92DF92EF92FF920F931F93CF9382
:10336000DF93C091200190910101C91708F0DAC0E4
:10337000D0911F01D43008F0D7C060912201709124
:1033800023016115710509F4D1C0FB01F490319658
:103390000491319694913196E49121E0891708F0D7
:1033A00020E02111C5C021E0E81708F020E021113C
:1033B000BFC0DB011496482F50E0491B5109440F50
:1033C000551FFD01E40FF51FE4912E2F30E0FA01A7
:1033D0003196EA0FFB1FE491DE2ED694D694D69454
:1033E000D694EF703E2B5B01A20EB31E809121019B
:1033F000182F147082FF66C0102F187003FF43C08F
:10340000C12CEF2C02E095014D2D6C2F8D2F0E94C9
:103410003718982E882309F48DC081E08D0F8430F1
:1034200008F08AC0CC24C39495014D2D6C2F0E94C6
:103430003718182F882309F48AC082E08D0F843052
:1034400008F07CC0FFEFAF1ABF0AC12C95014D2DCB
:103450006C2F0E943718182F882309F478C083E056
:103460008D0F843008F06CC0CC24C39495014D2D91
:103470006C2F0E943718182F882309F468C0909287
:10348000200111E064C0C12CEF2C01E095014D2D0D
:103490006C2F8D2F0E943718982E882309F457C05F
:1034A00081E08D0F843008F04DC095014D2D6C2FBB
:1034B0000E943718182F882309F449C090922001E0
:1034C00011E045C0802F8870C82E03FF1DC0EF2C6F
:1034D00002E095014D2D6C2F8D2F0E94F518C82EFE
:1034E0008823A9F181E08D0F843070F595012F5F5D
:1034F0003F4F4D2D6C2F0E94F518182F882339F15E
:10350000C092200111E023C0EF2C01E095014D2D68
:103510006C2F8D2F0E94F5188823C1F08093200115
:1035200011E015C011E013C011E011C011E00FC08F
:1035300011E00DC010E00BC011E009C011E007C0A0
:1035400011E005C011E003C011E001C01C2D812F66
:10355000DF91CF911F910F91FF90EF90DF90CF906F
:10356000BF90AF909F900895209122013091230148
:103570002115310541F1F90154913296949131961A
:10358000E49141E0891708F040E041111EC041E09C
:10359000E81708F040E0411118C0E82FF0E0E91BFF
:1035A000F109EE0FFF1FE20FF31F3596849182950C
:1035B0008F7051FD8F5F50FD8F5F9091210191FFC2
:1035C00005C0880F089580E0089581E008954F9226
:1035D0005F926F927F928F929F92AF92BF92CF92A3
:1035E000DF92EF92FF920F931F93CF93DF934B01E4
:1035F0005C01642E722E211113C0909120018091E4
:103600000101981708F065C080911F01843008F00F
:1036100063C08091220190912301892B09F45FC03E
:1036200000E010E1C9E0D0E0C12CD12C512C4424A1
:103630004394E62CF12CF8014591559165917491D4
:1036400084169506A606B70670F080E08F5F841A90
:10365000950AA60AB70A84169506A606B706B0F715
:10366000811149C001C080E0EC16FD060CF043C09A
:103670007720A1F0552039F001C0542C805D0E94C4
:10368000B41AC80ED11C6620D1F0CE15DF05B9F4EE
:103690008EE20E94B41AC80ED11C11C0552029F028
:1036A000805D0E94A6198823E9F0662041F0CE15BE
:1036B000DF0529F48EE20E94A6198823B1F0045098
:1036C0001109219708F0B7CF772091F08C2D9D2D0F
:1036D00016C081E090E013C081E090E010C081E06E
:1036E00090E00DC080E090E00AC080E090E007C06C
:1036F00081E090E004C07110C0CF542CD1CFDF9195
:10370000CF911F910F91FF90EF90DF90CF90BF90DE
:10371000AF909F908F907F906F905F904F900895A3
:10372000909121019E7F811103C090932101089502
:103730009160909321010895EF92FF920F931F9350
:10374000CF93DF93182FF090200180910101F8169C
:10375000A8F5412F50E0282F30E02F193109241708
:10376000350714F4182F1F19E0912201F09123015D
:103770003196E491E3FD2FC02CC000911F0104306D
:10378000C0F4E02EE80E6F2D802F0E941E188823B3
:1037900041F1112349F0C0E08D2F0E94B416882317
:1037A00001F1CF5F1C13F8CF0E1519F00F5F043035
:1037B00051F71F0D1093200181E013C081E011C06B
:1037C000D170D1958150D9CF880FD170D1958150CA
:1037D000D4CF81E001C082E0D0912101D2FFF0CFAF
:1037E000F3CFDF91CF911F910F91FF90EF9008954C
:1037F00090910101891708F4982F80912001891771
:1038000028F4981B892F0E949C1B089581E008953D
:10381000CF93DF93009799F0EC0109C0FE018491EA
:10382000882379F00E94A6192196882359F0909157
:10383000200180910101981788F381E003C080E0A6
:1038400001C081E0DF91CF9108950F931F93CF9333
:10385000DF930097A1F0EC012196FC01849188236D
:1038600089F000E010E00E94B41A080F111DFE015B
:10387000849121968111F7CF802F912F05C080E090
:1038800090E002C080E090E0DF91CF911F910F9116
:10389000089520E00E94E71A089521E00E94E71AA7
:1038A0000895CF92DF92EF92FF92CF936B017C014C
:1038B000C42F99236CF48DE20E94A619882371F01D
:1038C000F094E094D094C094C11CD11CE11CF11C74
:1038D00020E04C2FC701B6010E94E71ACF91FF905C
:1038E000EF90DF90CF900895CF92DF92EF92FF920A
:1038F0001F93CF93DF936B017C01142F992374F4F2
:103900008DE20E94B41AC82FD0E0F094E094D094D5
:10391000C094C11CD11CE11CF11C02C0C0E0D0E06D
:1039200021E0412FC701B6010E94E71A8C0F9D1FAD
:10393000DF91CF911F91FF90EF90DF90CF9008958E
:103940009C01F999FECF9FB7F894F999FECF32BD4B
:1039500021BDF89A80B59FBF8F3F09F4862F089547
:103960009C01F999FECF9FB7F894F999FECF32BD2B
:1039700021BDF89A80B5861719F060BDFA9AF99AB8
:103980009FBF0895FF920F931F93CF93DF938C01F6
:10399000F62ED72F6FEF0E94A01CC82F6FEFC80123
:1039A00001960E94A01C2C2F30E0382B2F3F8FEF68
:1039B000380719F08C2F932F02C08F2D9D2FDF9188
:1039C000CF911F910F91FF9008951F93CF93DF9395
:1039D000EC01172F0E94B01C612FCE0101960E94AE
:1039E000B01CDF91CF911F9108958091020108953D
:1039F000823010F4809302010895662319F061303B
:103A000029F00FC0FC01859194910895FC01329634
:103A1000259134912115310539F4FC01859194915A
:103A2000089580E090E00895822F932F089560918B
:103A300002010E94FD1C0895DF92EF92FF920F9306
:103A40001F93CF93DF93D82E162F042FC9010E9406
:103A5000171DEC010E94251C7C01612F8D2D0E94F9
:103A60009619802F90E0811B9109E816F90620F441
:103A7000802F8E190E94F81BCE010E94081CDF9136
:103A8000CF911F910F91FF90EF90DF9008950F93CA
:103A90001F93CF93DF93D82FCB01C42F0E94171D04
:103AA0008C016C2F8D2F0E949619C8010E94251C35
:103AB000813840F490E8981B892F86958C1718F46C
:103AC0008C2F01C08C2F0E94F81BC8010E94081C7B
:103AD00080E88C1B0E94F81BDF91CF911F910F9102
:103AE00008957F928F929F92AF92BF92CF92DF9272
:103AF000EF92FF920F931F93CF93DF93782EEB01FA
:103B0000D42EF22E4B01770FAA08BB08C501B401D1
:103B10000E94741CC82EFF2049F01C161D062CF4B0
:103B20008BE20E94B41AC80E01C0F12C01151105D8
:103B300059F0C8010E94171DEC01009739F00E944E
:103B4000251C0496C80E02C0C0E0D0E06E2D872D63
:103B50000E94961980E88C1530F08C1986958E1588
:103B600018F48E2D01C08E2D0E94F81BFF2019F035
:103B70008BE20E94A6194D2DC501B4010E94511C73
:103B8000209731F084E00E949C1BCE010E94081C0B
:103B900080E88E190E94F81BDF91CF911F910F9141
:103BA000FF90EF90DF90CF90BF90AF909F908F905D
:103BB0007F9008950E94B1160E94A1320E94D229DE
:103BC000109280001092810080B7806880BFEAE781
:103BD000F0E080818F778083ECEBF0E080818B7F59
:103BE00080831092C1001CBC0895EF920F93611165
:103BF00060E78F3F41F4E12C00E020E142E082E009
:103C00000E944E150BC090E2899FA00111244A52D8
:103C1000554E00E122E082E00E94D5150E940B176C
:103C20000F91EF9008950E94560F81E00E94901B23
:103C300040E060ED77E180E00E94471D80E00E9457
:103C4000901B60E084E00E94F51D61E083E00E942B
:103C5000F51D0E943B0E813121F08132D1F781E0C8
:103C6000089580E008950E94560F1092250182E089
:103C70008093260180914D018093240161E085E0CD
:103C80000E94F51D0895CF930E943B0E882331F1C9
:103C9000982F9F70807F803129F4923009F474C08E
:103CA000C0E021C08033E1F08032E1F48091250151
:103CB000882359F0913019F09450923040F480915B
:103CC000260180FD06C0C2E005C0C0E003C0C0E020
:103CD00001C0C1E086E98093250105C0C0E003C0B2
:103CE000C3E001C0C0E090914D018091240198177C
:103CF00009F44CC09093240180912501811112C0D8
:103D00003091260181E031FB222720F9282795FBFD
:103D1000992790F998272917D9F182E08327809372
:103D2000260138C0815080932501811107C09091F0
:103D3000260181E08927809326012CC08C3390F4E2
:103D40003091260181E031FB222720F9282792FBC0
:103D5000992790F998272917D9F082E08327809333
:103D6000260118C08091260181FD12C082608093D7
:103D7000260110C080FD02C085E001C086E061E040
:103D80000E94F51D8C2F0CC084E00AC08C2F08C047
:103D90008C2F06C08091260181FDECCF8FEFEFCFF5
:103DA000CF9108957F928F929F92AF92BF92CF92C0
:103DB000DF92EF92FF920F931F93CF93DF93782EB2
:103DC000882379F00E94462DF82EA82EB12C0E944F
:103DD000182D0E94331E81E00E94901B60EE77E157
:103DE0000EC00E942B2DF82EA82EB12C0E94182D4B
:103DF0000E94331E81E00E94901B64EE77E140E058
:103E000080E00E94471D80E00E94901B772011F007
:103E10008AE001C08EE0882ED12CCC24C3940F2ED2
:103E2000F7E09F2EF02D02C0F82CD12E80E70E94E3
:103E30009B19CF2DD0E06894EE24E4F800E010E068
:103E400020E040E0BE0182E00E94711D80E80E94F7
:103E50009B191C2DCA15DB0509F010E0D11649F09D
:103E6000CA15DB0511F0892D01C08C2D60E00E9480
:103E7000F51D0E940B170E94431E8823E1F3843036
:103E8000A1F4CA15DB0569F00E94131E882349F0CE
:103E9000772021F08F2D0E944C2D03C08F2D0E9482
:103EA000312D80E00E94222D20C0813041F48F15F9
:103EB00008F0BBCFFA948F2D0E94182DB6CF823018
:103EC00049F483E18F1508F4B0CFF3948F2D0E944D
:103ED000182DABCF833009F0A8CFF81409F4A4CF84
:103EE000882D0E94182DF82CA0CFDF91CF911F9123
:103EF0000F91FF90EF90DF90CF90BF90AF909F9089
:103F00008F907F900895CF93DF93CDB7DEB7E19781
:103F10000FB6F894DEBF0FBECDBF78940E948E29F5
:103F20000E94360E0E948F3204C082E390E00E940D
:103F3000C62B0E9439178823C1F381E00E94222DED
:103F40000E948719CE01099698A78FA39C01DC01D6
:103F5000FE0131968EEF11928D93E217F307D9F798
:103F600080914E0122242A94280EBB24B3941DA6CE
:103F7000312CFE017196FAA7E9A7F9A5FBA72AA59E
:103F80002CA702C01DA7B12C0E943B0E813209F064
:103F90009BC0E0904E0160E0CE0141960E941D3032
:103FA000F0904D0100E010E06894882487F805C087
:103FB000ED2C03C0ED2C01C0ED2CBC88AD889E8893
:103FC00040E0BE01675E7F4F8B2D0E940D108BE09D
:103FD0008B8F40E0BE01645E7F4F8A2D0E940D10E2
:103FE000FE0179966F01512C652DF60181916F01CB
:103FF0000E949C0FF0E15F0E20E55212F5CF892D53
:1040000090E08053984F2C01612C712C40E0C3014B
:10401000B2010E944D1CD82CD81A8FE48D1520F0C7
:104020000F2EF0E5DF2EF02D60E580E00E9496195E
:104030008D2D0E94F81B40E0C301B2010E94491C73
:10404000492D6A2D8B2D0E94F831873008F087505A
:10405000E82FF0E0EE0FFF1FEA50F44E2591349167
:10406000482D60E582E00E941C1D0E940B170E94F3
:104070003B0E813131F1813221F1807F803211F4A8
:1040800000E010E080914D018F1539F00F5F1F4F58
:10409000023692E01907A8F4F82ED0904E01DE14F3
:1040A00031F360E08BA59CA50E941D308C89B8126D
:1040B0007FCF8D89A8127ECF8E8998127DCFED2C6F
:1040C000D6CFBB24B39451C7813109F04EC70E94AB
:1040D000560F1FA6412C18AA19AAECE04E12FCC0DC
:1040E00080E80E949B1960E081E00E94F51D61E07C
:1040F00080E00E94F51DFFA5F13099F440E06CE9E5
:1041000077E180E00E94471D80E70E949B1940E113
:1041100068E977E182E00E94471D80E80E949B19D0
:1041200020C184EA97E10E94171D8C010E94251C82
:104130006894EE24E2F8E80E40E060E070E0CB0125
:104140000E944D1CF82E40E061E070E080E090E0BD
:104150000E944D1CF80E40E06BEA70E080E090E0B9
:104160000E944D1CF80E8EE20E94B41A880F8F0D2B
:10417000282F30E02E0D311D213831052CF090E82C
:10418000F92EF81AD12C07C090E8D92EDE18D81ACB
:10419000D694FE2CFD0C60E080E00E9496198D2DD7
:1041A0000E94F81BC8010E94081C8F2D0E94F81B5A
:1041B0006F2D80E00E94961940E060E070E0CB0136
:1041C0000E94491C8EE20E94A61940E061E070E066
:1041D00080E090E00E94491C8EE20E94A61940E017
:1041E0006BEA70E080E090E00E94491C80E80E9449
:1041F000F81B80EA97E10E94171D8C010E94251C84
:104200006894EE24E2F8E80E40E06BE170E080E0B4
:1042100090E00E944D1CF82E40E064E070E080E0E9
:1042200090E00E944D1CF80E40E062EE77E080E0E6
:1042300090E00E944D1CF80E8EE20E94B41A880F86
:104240008F0D282F30E02E0D311D213631053CF029
:1042500090E7F92EF81A6894DD24D4F807C090E8A6
:10426000D92EDE18D81AD694FE2CFD0C80E70E94B9
:104270009B1960E182E00E9496198D2D0E94F81B27
:10428000C8010E94081C8F2D0E94F81B6F2D82E030
:104290000E94961940E06BE170E080E090E00E949F
:1042A000491C8EE20E94A61940E064E070E080E0C4
:1042B00090E00E94491C8EE20E94A61940E062EE46
:1042C00077E080E090E00E94491C80E70E94F81BA4
:1042D00080E80E949B1945C0842D90E08C309105A8
:1042E00030F5FC01EC5CFF4F0C9444330CEF17E10C
:1042F00023C008EF17E120C000EF17E11DC00CEE4E
:1043000017E11AC008EE17E117C004EE17E114C058
:1043100000EE17E111C004EF17E10EC00CED17E13C
:104320000BC008ED17E108C004ED17E105C000E07F
:1043300010E002C000E018E160E080E00E94F51D9E
:1043400061E082E00E94F51D40E0B80180E00E943B
:10435000471DE12C00E020E642E060E182E00E949F
:104360004E150E940B1740E060E080E19EE00E9445
:10437000650F882309F4F1C5843109F4F1C5813151
:1043800031F42CE0421609F4EEC54394A6CE8132F6
:1043900051F7842D90E08D30910508F0DBC5FC01CC
:1043A000E05CFF4F0C9444338FA58F5F8FA7823062
:1043B00008F4D0C51FA6CEC560E081E00E94F51DBF
:1043C00061E080E00E94F51D81E00E94901B40E0CA
:1043D00060E078E180E00E94471D80E00E94901B31
:1043E00080E70E949B1940E164E977E182E00E9446
:1043F000471D80E80E949B190E940B1740E060E077
:1044000080E090E00E94650F813249F40E94F51C23
:104410008F5F823008F080E00E94F81CD5CF813198
:1044200069F70E94F51C682F80E190E00E94B01CA3
:1044300091C5B0904E0160E0CE0181960E941D3082
:1044400040E0BE01675E7F4F8BA10E940D107B8E06
:10445000482DBE01645E7F4F8AA10E940D107E8EA2
:10446000482DBE01615E7F4F89A10E940D1066201C
:1044700009F409C691E0991649F0991620F0E2E096
:104480009E1631F007C05F8E58A2FDC55D8EFBC53C
:104490005C8EF9C5598E5A8EF6C5A11006C0F6017C
:1044A0009081F7018081981739F0F6018081F7013A
:1044B0008083612F0E949C0F105FFFEFCF1ADF0AED
:1044C0002FEFE21AF20A103841F70E940B171091F1
:1044D0004D010E943B0E90914D01191731F00F5F75
:1044E000043118F0682400E007C0811105C08091F4
:1044F0004E018B1561F39DCF813229F09CED980F11
:10450000923008F05EC0F89460E0CE0181960E947F
:104510001D3081E0981641F0981620F092E099162F
:1045200099F01CC019A221C08AA18A3030F090E015
:104530008A50965F8A30E0F701C090E0893010F42D
:10454000980F9F5F9AA311C08AA19AE0980F9C339D
:1045500010F49AA30AC082538AA307C08BA18F5F6D
:10456000883110F48BA301C01BA2682D911060E06C
:1045700040E0CE0181960E94733078940E94882B8F
:10458000B0904E0160E0CE0181960E941D3040E067
:10459000BE01675E7F4F8BA10E940D107B8E482D60
:1045A000BE01645E7F4F8AA10E940D107E8E482D51
:1045B000BE01615E7F4F89A10E940D10612C00E059
:1045C00062C5813109F035CFE3E09E1609F4C2C41B
:1045D0009394B0904E0160E0CE0181960E941D3010
:1045E00040E0BE01675E7F4F8BA10E940D107B8E65
:1045F000482DBE01645E7F4F8AA10E940D107E8E01
:10460000482DBE01615E7F4F89A10E940D10662476
:10461000639400E02FCFA12C0DC0612C712C10E011
:10462000AA24A394812C1EA60F2EFBE09F2EF02D12
:1046300055245A94B0904E0160E08BA59CA50E9431
:104640001D30FEA5F23030F582E089A341E0BE01C5
:104650006D5D7F4F8E890E940D108AA35DA2882018
:1046600031F02EA5211102C05BA201C05CA2AA20DC
:1046700009F46BC028EC37E140E860E580E00E9477
:104680001C1DE12C00E020E342E060E582E00E9496
:104690004E155BC040E0BE016F5D7F4F8C890E946C
:1046A0000D109BA240E0BE016C5D7F4F8D890E9482
:1046B0000D10882069F08EA5823029F45CA25DA2DD
:1046C000AA2021F10FC059A25AA2AA20F9F00FC0C6
:1046D000AA20E1F09EA5923079F0E0ECF7E12E2FD0
:1046E0003F2F0EC084EC97E1282F392F09C0E0EC52
:1046F000F7E12E2F3F2F04C084EC97E1282F392FAC
:1047000040E860E580E00E941C1D06C08C8987118E
:1047100003C09D899615C1F07C886D884E89662DF1
:10472000872D0E94F831873008F08750E82FF0E09D
:10473000EE0FFF1FEA50F44E2591349140E860E5FA
:1047400082E00E941C1D01C0782E6E0191E2C90E0C
:10475000D11C7E01E9E1EE0EF11C00E0A11006C0C3
:10476000F6019081F7018081981739F0F601808178
:10477000F7018083602F0E949C0F005FFFEFCF1A2C
:10478000DF0A2FEFE21AF20A003541F70E940B17F9
:1047900000914D010E943B0E90914D01091739F097
:1047A0001F5F143120F091E0892610E008C08111CC
:1047B00006C080914E01B81659F3A12C3BCF81322F
:1047C00029F09CED980F923008F04AC0F89460E010
:1047D0008BA59CA50E941D308EA5813071F018F02C
:1047E0008230D9F023C08E899AE0980F943610F465
:1047F0009E8B29C08A558E8B26C08E898A3030F0D8
:1048000090E08A50965F8A30E0F701C090E08930EE
:1048100010F4980F9F5F9E8B16C08D898F5F8D302F
:1048200010F48D8B10C081E08D8B0DC01C891F5F33
:104830001C8B1D3140F06E898D890E94E1318117FA
:1048400010F481E08C8B40E060E08BA59CA50E9479
:10485000733078940E94882B10E0A12C812CEACE32
:10486000813109F0D8CE9EA5933009F473C39F5FC0
:104870009EA710E0AA24A39488248394DBCE60E052
:1048800081E190E00E94A01C182F60E081E00E946E
:10489000F51D61E080E00E94F51D81E00E94901B03
:1048A00040E060EF77E180E00E94471D80E00E94D9
:1048B000901B80E70E949B1940E16CEC77E182E05D
:1048C0000E94471D80E80E949B190E940B1740E040
:1048D00060E080E090E00E94650F813279F41F5F14
:1048E000123008F010E0E12FF0E0EE0FFF1FE65469
:1048F000FF4F859194910E949119CFCF813139F763
:10490000612F81E190E00E94B01C24C30E94C31576
:1049100060E081E00E94F51D61E080E00E94F51DED
:10492000AA24A3940F2EFAE0BF2EF02D00914E0181
:1049300060E08BA59CA50E941D3041E0BE016F5D2B
:104940007F4F8A890E940D10BBA241E0BE016C5DC1
:104950007F4F89890E940D106E01E9E1CE0ED11CB6
:10496000CE0181967C0118E1A11006C0F60190816C
:10497000F7018081981739F0F7018081F601808373
:10498000612F0E949C0F105FFFEFCF1ADF0A2FEFFD
:10499000E21AF20A183641F70E940B17402F61E025
:1049A00080E090E00E94650F8823B9F0813259F4CD
:1049B0000E94990F8F5F843008F080E00E94940F6E
:1049C000AA24A394B3CF813149F70E94990F682F8D
:1049D00082E190E00E94B01CBDC2A12CA7CF0E9432
:1049E000C31560E081E00E94F51D61E080E00E9457
:1049F000F51DF0904E010FEF0F0DB12C512C6624D8
:104A00006394812C992493940F2EFAE07F2EF02D3D
:104A1000A92C8EA6F016C9F0682D8BA59CA50E9426
:104A20001D30492DBE016F5D7F4F8A890E940D1098
:104A30007BA2492DBE016C5D7F4F89890E940D10BC
:104A40000E943310811105C00F2D552009F426C393
:104A500002C00F2D592C611021C38FE18B1508F472
:104A60001DC31AC0611006C0F6019081F701808154
:104A7000981739F0F7018081F6018083612F0E9439
:104A80009C0F105FFFEFCF1ADF0A2FEFE21AF20A36
:104A9000183641F7582C18C06E0189E1C80ED11C98
:104AA0007E0191E2E90EF11C18E1F60181916F019E
:104AB000F70161917F01861721F02B2D412F0E9474
:104AC0003910105F183689F70E940B170E943B0EB1
:104AD000813251F40E9433108F5F853008F08EA52B
:104AE0000E9436106A2C0BC0813141F40E943310B1
:104AF000682F83E190E00E94B01C2CC26EA4F0905D
:104B00004E01552029F00E9458308695869501C0A7
:104B10008EA5F01209C0611006C05520B9F2B81672
:104B2000A9F2F02E01C0F02EB82E74CF80E00E94C2
:104B3000D21E10C281E00E94D21E0CC20E94A83177
:104B40005C010E94331E6501F12C0F2EF7E05F2EF1
:104B5000F02D942C852CAFE2BDE026010D2C000C2D
:104B600066087708A30192010E946833DC01CB013B
:104B70009058AF4FBF4FBD01992777FD9095892F72
:104B8000EE24E39408EB17E121E041E080E00E948D
:104B9000711D80E70E949B19A2E4BFE0A30192016E
:104BA0000E946833DC01CB019058AF4FBF4FBD016D
:104BB000992777FD9095892F6894EE24E4F80CEB03
:104BC00017E121E040E082E00E94711D80E80E9430
:104BD0009B1911E0AC14BD0409F010E01F1551F051
:104BE000AC14BD0411F0882D01C081E060E00E948A
:104BF000F51DF12E0E94431E8823E1F3843081F4D9
:104C0000492CAC14BD0409F4A5C10E94131E8823CD
:104C100009F4A0C1C6010E94AD310E94882B9AC13F
:104C2000813089F4F0E1CF16F0E8DF062CF020E1C6
:104C3000C21AD10880EFC822C114D10409F08BCF69
:104C40000E94450F88CF823089F490EFC9169FE704
:104C5000D9062CF4E0E1CE0ED11CF0EFCF22C11426
:104C6000D10409F078CF0E94450F75CF833009F049
:104C700072CFC8A8D9A86FCF0E94EC2C4C010E941B
:104C8000E72C6C010E94331E81E00E94901B40E0E3
:104C90006CED77E180E00E94471D80E00E94901B50
:104CA0005401F12C0F2EF7E07F2EF02D6F2C01C058
:104CB000670180E70E949B19C601881999098A0D2E
:104CC0009B1DBC01660F771F880F991F880F991FC6
:104CD000880F991F680F791F685F7F4F75956795DB
:104CE0007595679575956795759567956894EE24A4
:104CF000E4F804EB17E120E041E082E00E94711D3E
:104D000080E80E949B1911E08A149B0409F010E0CE
:104D1000161551F08A149B0411F0872D01C081E013
:104D200060E00E94F51D612E0E940B170E94431E39
:104D3000182F0E94E72C7C01111104C0C816D90657
:104D4000A9F3B6CF143069F48A149B0409F402C1A4
:104D50000E94131E882309F4FDC0C5010E94F12C96
:104D6000F9C0113089F424EEA2162CEFB2062CF013
:104D700084E0A81AB1089CEFA922A114B10409F09B
:104D800097CF0E94450F94CF123089F4EDE1AE1613
:104D9000E3E0BE062CF4F4E0AF0EB11C2CEFA2222F
:104DA000A114B10409F084CF0E94450F81CF1330C4
:104DB00009F07ECFA8A8B9A87BCF0E94DE31D82EFB
:104DC0000E94331E81E00E94901B40E068ED77E175
:104DD00080E00E94471D80E00E94901BFD2CC12CAA
:104DE000BB24B3940F2EF7E0AF2EF02D80E70E9486
:104DF0009B196F2D70E06894EE24E4F800EB17E146
:104E000020E043E082E00E94711D80E80E949B192F
:104E10001B2DDF1010E01C1549F0DF1411F08A2D56
:104E200001C08B2D60E00E94F51DC12E0E940B1762
:104E30000E94431E8823E1F3843061F4DF1409F4F7
:104E400089C00E94131E882309F484C08F2D0E94FC
:104E5000D03180C0813021F4FF2041F2FA94C6CFD6
:104E6000823031F48DEF8F1508F4C0CFF394BECFAC
:104E7000833009F0BBCF0F2EF8E2FF2EF02DB6CF16
:104E800060E081E00E94F51D61E088E00E94F51D70
:104E900081E00E94901B40E064ED77E180E00E9499
:104EA000471D80E00E94901BF0904E010E940D2C47
:104EB0008C0180E70E949B199801A9E8B1E40E9447
:104EC0005233DC01CB019058AF4FBF4FBD01882753
:104ED00099276894EE24E4F80CEA17E120E040E01A
:104EE00082E00E94711D80E80E949B190E940B17AE
:104EF0004F2D61E080E090E00E94650F8823A1F2D1
:104F0000813231F5E6E6F0E0108180E70E949B19DE
:104F100040E168EA77E182E00E94471D80E80E9454
:104F20009B190E940B1789E09DE30E94362C815D3E
:104F30009B438137924008F0B7CFE6E6F0E060810E
:104F4000161709F4B1CF8EEF93E00E94B01CACCFDE
:104F5000813171F60E94560FC0C8BB24B39405C0BE
:104F6000BB24B39402C0BB24B394A0904E01332061
:104F700031F00E945830182F1695169501C010E098
:104F80002A100BC0B11014C0332011F40C94C31FAD
:104F9000FDA5F11309C00C94C21FB11013C00E94EB
:104FA00033108111BFC084C0103220F41DA704C08B
:104FB000312C02C01DA6312C2A1008C0BB2009F4D8
:104FC0007AC004C0312C02C01DA6312C60E0CE0195
:104FD00041960E941D3040E0BE016F5F7F4F8B897C
:104FE0000E940D101AE01B8341E0BE016C5F7F4FF1
:104FF0008A890E940D101E8341E0BE01695F7F4FC8
:1050000089890E940D1057C0182F09C0CE01019642
:105010006C01FE0139967F0110E001C0182FF701E5
:1050200081917F01F60161916F01861709F480C0BB
:105030002DA5412F0E94391080E1810F105722F3D6
:105040001DC0FFEFEF1AFF0A0F5F1F4FDD20B4F006
:10505000B11006C0F7019081F8018081981749F0DE
:105060006D2DF80180810E949C0FF8018081F7016D
:105070008083F0E1DF0E20E8D212E3CF0E940B170D
:105080002A2C0C94C31FA12C6E0189E1C80ED11CDF
:105090007E0191E1E90EF11C10E0FFC96E01E9E12A
:1050A000CE0ED11C7E01F1E2EF0EF11C18E1DACC3C
:1050B00031103AC08BCF3110A9CF8E010F5F1F4F37
:1050C000CE0109967C01D12CC3CFB0904E0160E097
:1050D000CE0181960E941D3040E0BE01675E7F4F89
:1050E0008BA10E940D101AE01B8F41E0BE01645E8F
:1050F0007F4F8AA10E940D101E8F41E0BE01615EAC
:105100007F4F89A10E940D1000E0AA24A394912C46
:10511000612C882483940F2EFAE07F2EF02D5524E5
:105120005A94B2CF33243394103208F04DCF3ECF8F
:1051300080E1810F10570AF471CFA0CFF894E1E617
:10514000F0E080E8808381E0808380B7806880BF62
:1051500014B817B81AB88EEF85B98FE088B984E60D
:105160008BB90E94D130882379F00E94D5306AB57E
:105170007BB58091B3009091B4000E9407318111FA
:1051800005C00E94673102C00E9467316FEF8EEF49
:1051900093E00E94A01C8F3F11F08093660061E0B5
:1051A00080E190E00E94A01C823008F080E00E9424
:1051B000F81C60E082E190E00E94A01C843008F0BE
:1051C00080E00E94940F60E081E190E00E94A01CCA
:1051D000823048F4E82FF0E0EE0FFF1FE654FF4F57
:1051E0008591949102C080E090E00E94911960E066
:1051F00083E190E00E94A01C853008F080E00E94CE
:1052000036100E94652980E090E008951F920F9269
:105210000FB60F9211248F9380912701811106C040
:10522000189904C081E08093270106C08F910F90E8
:105230000FBE0F901F901895F89481E0809327017E
:105240000E94DA1D8FEA80936400E1E6F0E080E8D6
:10525000808383E0808383B7817F866083BF83B749
:10526000816083BFF999FECFE6EBF0E080818F711A
:10527000E9F7F894189B09C0189904C006C081503A
:1052800011F40DC08EEF1899FACF85B78F7D982F46
:105290009064806685BF95BF78948895E7CFF89431
:1052A00010922701E1E6F0E080E8808381E08083CE
:1052B00010926400F89408E00EBF0FEF0DBF1124A8
:1052C0001F921F920C94831F0895F894EBE6F0E070
:1052D000808181608083E8E6F0E080818160808366
:1052E000189B0E941C2910922701F89408E00EBF19
:1052F0000FEF0DBF11241F921F920C94831F08956E
:10530000882319F0EFEFE80F01C0E0E0E43108F086
:10531000E3E1F0E0E25FF34E84910895CF931092C1
:105320008000C1E0C09381006FEF7FEF88E090E0E4
:105330000E94C21C80959095909335018093340112
:105340006EE08AE090E00E94A01C0E948029809379
:1053500029016AE08BE090E00E94A01C0E94802955
:105360008093280110922A01C0932B0157985F9ACD
:1053700088EC80937C0010923301109232011092DD
:10538000310110922C0110922D0110922E011092D9
:105390002F011092300110927B0086EC80937A00EE
:1053A000CF9108955F9810927A001092810008952D
:1053B00080913101803408F468C02091320130912D
:1053C000330180912D0190912E01A0912F01B09178
:1053D0003001820F931FA11DB11D80932D01909369
:1053E0002E01A0932F01B09330011092330110923F
:1053F000320110923101EAE7F0E08081806480831D
:1054000080912C018F5F80932C018034F0F180918A
:105410002D0190912E01A0912F01B0913001809625
:10542000A11DB11D689415F8B695A7959795879518
:105430001694D1F7DC01B7552DE33AE041E050E096
:105440000E947333DC01CB019058AF4FBF4FCD01A9
:105450000296959587959595879580579E4F2091B3
:10546000340130913501820F931F90930401809392
:1054700003010E94C23110922C0110922D01109252
:105480002E0110922F011092300180912B01811179
:1054900030C04F9B03C08091290102C08091280138
:1054A00090912A01891729F1292F22952F702F5FBA
:1054B000981770F4482F50E0491B5109622F70E093
:1054C0006417750714F4892F820F80932A010DC089
:1054D000492F50E0481B5109622F70E0641775078F
:1054E00014F4892F821B80932A0180912A010E9443
:1054F0000E1808950E94DB309093B4008093B3009F
:105500007BBD6ABD0E94D530E0E0FFE309950895B8
:10551000CF93C82F61E085E60E941A338C2F0E943A
:10552000DB32CF9108950F931F93CF93DF9300D079
:1055300000D000D0CDB7DEB7182F0E94AD32833532
:1055400009F469C030F4823469F0833409F4AEC0E0
:10555000D1C08635E1F0873509F4B5C0843509F04E
:10556000C9C01FC0143079F40E94AD328C3459F494
:105570000E94AD32833539F40E94AD32843519F47E
:105580000E947A2ABAC081E00E94882AB6C06AE0E6
:1055900086E70E941A336AE084E09CE10E940133AE
:1055A000ACC061E0CE0101960E941D30182F6DE065
:1055B00084E70E941A338E810E94DB328D810E9423
:1055C000DB328C810E94DB328B810E94DB328A814C
:1055D0000E94DB3289810E94DB32812F0E94DB3204
:1055E00006E311E0F80185810E94DB32F801848135
:1055F0000E94DB32F80183810E94DB32F801828154
:105600000E94DB32F80181810E94DB32F801808147
:105610000E94DB3272C0183020F482E00E94882A97
:105620006CC00E94AD328E830E94AD328D830E9489
:10563000AD328C830E94AD328B830E94AD328A835F
:105640000E94AD3289830E94AD32182F89818C333C
:10565000A8F48A818C3390F48B81883178F46E8140
:10566000643660F48D819FEF980F9C3038F40C8184
:10567000002321F00E94E131801720F483E00E9492
:10568000882A3BC0412F61E0CE0101960E94733011
:1056900086E0FE013196A6E3B1E001900D928A9575
:1056A000E1F760E083E70E941A3327C062E083E6F7
:1056B0000E941A330E94A831192F0E94DB32812FD9
:1056C0000E94DB321AC0123020F482E00E94882A45
:1056D00014C00E94AD32182F0E94AD32212F30E04D
:1056E000A901582BCA010E94AD3160E087E70E94F2
:1056F0001A3303C081E00E94882A26960FB6F894D8
:10570000DEBF0FBECDBFDF91CF911F910F910895E6
:10571000E6E3F1E010821182128213821482158274
:105720000895809131018034E0F490917A0096FDE3
:1057300018C0209178003091790040913201509149
:105740003301240F351F30933301209332018F5FD3
:1057500080933101803428F4EAE7F0E080818064AE
:105760008083B09B08C0B09A80914D018F5F809379
:105770004D010E94D8290E94A432882321F00E9462
:10578000932A0E94CB3280914D0108958F929F926F
:10579000AF92BF92EF92FF920F931F93CF93DF933D
:1057A000409184005091850000914D0126B39C01E9
:1057B000A0EABFE00E9452334C01AA24BB24E401BA
:1057C0007A01E60EF71EE416F50608F421960E940B
:1057D000912B182F801B90E0C817D90798F0C81B91
:1057E000D90B012FA1F7C4E8D0E00E94912B88814A
:1057F00099818E159F0530F4B09904C080914D01B8
:10580000181799F3DF91CF911F910F91FF90EF90AF
:10581000BF90AF909F908F900895E6EBF0E080816D
:105820008F71E9F7E2EBF0E080819FEF980F9E3FE8
:10583000D8F76FB7F894E2EBF0E020818217E9F334
:10584000409184005091850080E090E2E2EBF0E02E
:1058500002C0019751F030812317D9F38091840061
:10586000909185006FBF841B950B08954F925F92B6
:105870006F927F928F929F92AF92BF92CF92DF9260
:10588000EF92FF920F931F93CF93DF934C010E94EF
:105890000D2C5C01009709F44AC040906600881600
:1058A000990620F47C01E818F90803C07401E81A8D
:1058B000F90A842D8078682E00E810E0712C0F2EF4
:1058C000F6E6CF2ED12CF02DE801C70DD11DD695CF
:1058D000C7955C2E8C2F8629F60180830E940D2CA3
:1058E0000097F9F08816990630F49C0128193909B7
:1058F0008E01112705C09401281B390B7C2E73944F
:105900002E153F0530F42115310549F079015C0170
:105910004C2E872D90E080179107B0F202C05C01F9
:10592000452C6428609266008A2D9B2D02C080E081
:1059300090E0DF91CF911F910F91FF90EF90DF905A
:10594000CF90BF90AF909F908F907F906F905F901F
:105950004F900895FC017183608320918400309101
:10596000850080914D01B0998F5F338322838483BA
:105970000895FC0180819181009739F12481628131
:105980007381409184005091850030914D01B09910
:105990003F5F321759F02F5F321303C04617570786
:1059A00020F01182108281E008953483461B570B4A
:1059B0004817590720F01182108281E00895841B56
:1059C000950B9183808380E0089581E00895809114
:1059D0000301909104010895809134019091350163
:1059E0000895209134013091350128173907F9F0D5
:1059F000AC01421B530B9A014091030150910401E9
:105A0000240F351F30930401209303019093350137
:105A100080933401BC016095709588E090E00E940D
:105A2000E51C80910301909104010E94C231089508
:105A300091E090932B010E94802980932A010E947B
:105A40000E18089510922B01882321F080912A01CD
:105A50000E940E1808956EE08AE090E00E94A01C5B
:105A60000895CF939FEF980F943170F4C82F0E9440
:105A7000802990912901891739F0809329016C2F91
:105A80008AE090E00E94B01CCF9108956AE08BE01C
:105A900090E00E94A01C0895CF939FEF980F94313F
:105AA00070F4C82F0E94802990912801891739F03D
:105AB000809328016C2F8BE090E00E94B01CCF9166
:105AC00008952091420130914301809140019091CD
:105AD0004101A901480F591F33233CF499235CF479
