:100000000C942C120C9449120C9449120C942E2D21
:100010000C9449120C9449120C9449120C941B3202
:100020000C9449120C9449120C9449120C944912E4
:100030000C9449120C9449120C9449120C944912D4
:100040000C9449120C9449120C9446360C944912A3
:100050000C9449120C9449120C9449120C944912B4
:100060000C9449120C944912AF258B258E259125AD
:10007000942597259A259D25A025A325A625A92564
:10008000F1258D2C22276728AE281729BE29C229E1
:10009000C629642A052B682BE925000102060A0FF0
:1000A000161D252F39444F5B6773808D99A5B1BC10
:1000B000C7D1DBE3EAF1F6FAFEFF1610E808C0004C
:1000C000010F20D3B711EE26E672BD71D3766576A7
:1000D0000173E632FA440045A7643C62B8314462D9
:1000E0007021E2710675F26672760872FB71FE7617
:1000F0002A75AA71D1731E755B22573266430C773D
:100100006C43897275753875BE720A761872B07252
:10011000D6722476CC7216429672F4726C710F739A
:100120001973697523733E76447305749C61A272DA
:100130001A773A734F75EE71B2741842E076BA428C
:1001400028777071E2323667846383657C63A365C8
:100150004C62B965B06342273053C6639E319873D1
:1001600041649965AF654C7657644667F065906366
:100170005267C5755D621265746272536C215E537D
:100180007F62B7113875DF73BE72A0712174B072CF
:100190005B75C576A673BC73F47226720F73CC724E
:1001A0006975CB712373A2769C615E776C774F750E
:1001B000FC75ED73F7737A872E7213748A7718764D
:1001C00032765073366798676B647F612D64A365E0
:1001D00067728D653964DB6588648A614D74636418
:1001E00099658064AF6583657B611265A4775D6204
:1001F0009C649464C074E5659061CA64D264596675
:100200008066DE64B2778A66C077CE67DA47F244EA
:100210009676B066E277D165F077FE670A78BA66BF
:10022000D571E6644465765418482048FE3FFE3F89
:10023000003000300030003000300030003000F07E
:100240003FF03F300030003000300030C03FE01F52
:100250003000F03FF03F0033003F001E0600060074
:10026000FE3FFE3F060006000600060006000638B8
:10027000063FE607FE001E0000400070003003FC51
:100280000FFC0F3003FC0FFC0F3003FE3FFE3F0658
:100290000006000600FE3FFE3F06000600060007BF
:1002A00000070038003E800FE003F8003E000E001B
:1002B0003E00F038C03FE007FE001E0007C007F018
:1002C000063C06FE3FFE3F00060C061C0638C63004
:1002D000E639BE1F1E0F0630FE3FFE3F06300630D9
:1002E0001C1CF80FE0030020F03FFC1F0E0006006E
:1002F000FE3FFE3FC030C039801F000FC000C0006D
:10030000F003F003C000C000C000C000C000C00087
:10031000F83FFC3FCE00C60040307030303030F047
:100320003CC00FC00FF03C3030F03CC00FF03FC07D
:100330000FF03C303038303C3037B033F030703074
:1003400000380018003000380018000400020002D5
:1003500033820044003800080018003800300038AC
:10036000FE1FFE0FFE1F003800300038FE1FFE0F7C
:10037000FE3FFE3FC630C630C63006300630FE3F78
:10038000FE3FC630CE30FC39B81F000FFE3FFE3FA7
:10039000C000C000C000FE3FFE3FC600C600C60051
:1003A000060006000E0008000E000600000008000F
:1003B0000E000600FE3FFE3FE000B00118070C3EB5
:1003C00006380FFC1FCE31EE337C1F383E0036FE60
:1003D0003FFE3F7800E0017800FE3FFE3F7800E0FE
:1003E000018007FE3FFE3F86018601CE01FC0078BA
:1003F000001000300030F63FF61FFE3FFE3F000FBA
:10040000C003000FFE3FFE3F86018603CE07FC3C83
:100410007838FC3ECE0786018601FE3FFE3F06305F
:100420003E3E7C1FC00180004001200210042002DB
:1004300040018000C0017C1F3E3E0630C01FE03FEF
:1004400060306018FE3FFE3F60306030E03FC01F0C
:10045000F01FF03F00300018F03FF03F3000E03F69
:100460003000F03FE03FFE3FFE3F000FC003F000D2
:10047000FE3FFE3F60006000E03FC03FFE3FFE3FAA
:10048000010FC303F100FE3FFE3F8003C006603C46
:1004900020380FFC1FEE39C630EE39FC1F380FFE36
:1004A0003FFE3FC630C630C639861F000F7E00FEB5
:1004B00000C00180018001FE3FFE3F0030F83F0098
:1004C00030FE3FFE3F38087C18EE38C630CE398CFF
:1004D0001F080FFE3FFE3FC030801F000FFE3FFE93
:1004E0003F0070F07FFC3F0E30FE3FFE7F0070E06B
:1004F0007FF03F3030F07F0070F03FF03F000E8023
:1005000003F03FF03F60003000F03FE03FF03FF08D
:100510003FC003000FC003F03FF03F6000300030E9
:10052000003000F03FF03F00030003F03FF03F30A9
:1005300033F037E03E001C003E0036003E001C0059
:10054000F03FF03F30003000F03FF03F8003C00646
:10055000603C3038F001F00300030003F03FF03F4F
:100560000020F03FF07F006006C003F00FF00FC0E6
:100570000360063C063E8633C63176303E300E3090
:10058000F03FF03F0030E03F0030F03FF03F0033FD
:10059000001EF03FF03F00330033003F001EE0310B
:1005A000F03B300F3007F03FF03F300030003C00B0
:1005B0003C000600E03FE03F0600F007FC1F0E385D
:1005C00002200E38FC1FF007FC1F0E3806300E38D4
:1005D000FC1FF007F0CF00CC00CCF0FFF07F7808D4
:1005E000FC18CE3986318E39FC1FF80FFC1FCE382F
:1005F000C630CE398C1F080FF83FFC3F8E018601B4
:100600008E01FC3FF83FFC3F0600CC33F81F300E54
:10061000383E3EF007C001F0073E3E0E383E3EF049
:1006200007FE3FF0073E3E0E38F80FFC1F0E38065F
:10063000300E38FC1FF80FFC1FE6336633E637FC3C
:1006400037F803E01FF03F303030307038601870FA
:100650003830303033F03FE01CE01FF03F303030B6
:1006600030F03FE01FF03F30333033F033E013F031
:10067000FFF0FF60183018F01FE00FF0DF30D86097
:10068000D8F0FFF07FF01FF03F0030F01F0030F097
:100690003FF01FF63F00300018F63FF03FF23F06F4
:1006A0000E8603F23FF03F0020E03F0020F07F0085
:1006B00060006000FE1FFE3F60306030FE3FFE3F86
:1006C00000300030FE3FFE7F0070F80FFC1F0E3838
:1006D00006300E380C180808180C1C1C0E38C630D2
:1006E000CE38FC1FF80FFC1F0E3806300E3B0C1FD7
:1006F000080FFE3FFE3FF007FC1F1E3CFC1FF80FDB
:10070000FC1F0E3806330E3EFC1FF837E00FF01FBB
:100710003018300CF0FFF0FF0060187038303330C4
:1007200033F03FE01F18303C3C3C0FD81BF03C3C02
:100730003C0C18381C3C0E3E06338E31FC307830B1
:10074000F03F8007E01F7038F03FE01FF63F303386
:100750003033F633E013F00FF91F1D380C301D381D
:10076000F91FF00FFC1F0E3806300E380C18080861
:10077000E01FF63F30303030F63FE01FF03F3033BF
:100780003033703860180C1C1C0E38C630EE39FC43
:100790001F380F7808FC188E39FF7F8E390C1F0820
:1007A0000E003E00F800E003800F003E0038FE33EC
:1007B000FE3310301830FC3FFE3F003000307E0C1E
:1007C0007E1C66386630E638C61F860F4001400141
:1007D00040014001400140014001FE01FE07001FB1
:1007E000003C001FFE07FE01100018000C00060070
:1007F0000C0018001000201E303F3033301BF03F3B
:10080000E03FE63FE63FE010F03130333033303E3A
:10081000201CF003F00F003C003CF00FF0033E0CF6
:100820007E1CE030C030C030FE1FFE0FF801FC031C
:100830000E3FFE3F0E3FFC03F801FE3FFE3F00303F
:10084000F83F0030FE3FFE7F0070FE3FFE3FC030AD
:10085000C030C039801F000FFC1FFE3F6330633083
:10086000E33FC01FC007E00F600CF03F600CE00FDB
:10087000C007FC3FFD3F8D318C318D310D300C3088
:10088000F03FF93F9D018C019D01F93FF03F201E93
:10089000363F3033301BF63FE03F0D30FC3FFC3F2E
:1008A0000D30FC0FFD1F013800300138FD1FFC0F1B
:1008B0003E0C7C1CE130C330C130FC1FFE0FF00742
:1008C000F2CF06CC06CCF2FFF07FF80FFC1FCE383B
:1008D000C6300E381C1C180CE400F600DE00DC00EC
:1008E0004600D600FE006E00010F20D38C11742646
:1008F0002873E364F371786684762833C541C9416F
:10090000837501728D31097291219361CF71C32179
:10091000E77154737D739276DB71B5712D72A37399
:1009200060225C321542A0761B42647239727B727F
:1009300087724772AC72487360736F738973462312
:100940006F7295736C71AF73BB73CF71C773EB73B9
:10095000F9739276AD711174AE761D746574D373AC
:10096000BC76C5419D61C941067370713433D45260
:1009700029549552A452C452835173548D54132355
:100980001E53B9546D23DC52E452EC527B54835411
:10099000F452CC52BA523154CA563954F854D4563F
:1009A000445521626C115162FC628C117B72DB71C7
:1009B00087720E75AC724873DE76547302751C75BF
:1009C0009573A771AF738973CF712875C773477219
:1009D000AD713675EC7665745A75DF734E75748536
:1009E0003A7368759D75547391750574D45241546A
:1009F0004B54F452AB55C452FA569C529F54A754D0
:100A0000AF545B54DC52C954EC52E452D154955269
:100A10007B5197540457F854C955D954C155DB65D7
:100A2000E655D355F8559C52F0550256B3750A5603
:100A30003476C154EE540E3740761A564C76225610
:100A40005A76125648732A566676175314575444EA
:100A50001E472647FE3F7E20002000200020002069
:100A60000020002000203CE03F20002000FE3F3E10
:100A700000220022000040007000300030000C0016
:100A800003C00030000C003000C0000003000C0068
:100A900030FE1F3E0002000200023FFE3F02000245
:100AA00000020002000200023FFE3F003FFE3F7EC8
:100AB0002002200220023FFE3F7E20022002200270
:100AC00020023FFE3FFE20822082208220823F8241
:100AD0003F8227822082208220F220FE20FE208278
:100AE00020FF7F8220823F823F800080008000F0D4
:100AF000078000800080008000800080008000402F
:100B0000012002100420024001800040013E3E1EF0
:100B10002002200220FE3FFE2082208220822082AE
:100B20003FFE3FCE2122224222E223023AFE3BFE3A
:100B30003F7E2002200220022002200220023C3EB2
:100B40003E400180004030703030303018000400EA
:100B50000200023382004400380020002000200000
:100B600020003FFE3FFE00820082008200823FFEA6
:100B70003FFE2082208220C220A23F9E3FE03FE035
:100B800021202020202020222022203EE03FE021A2
:100B90002020203CFE3F7E20022002200220041F55
:100BA000F80F2000FE3FFE2120202020E03FE02320
:100BB00020222022E023E0232022203E203E20226B
:100BC0002022203EE03FE001C03FE003E03FE001A3
:100BD0002000203CE03FE0212020203CE03FE001DD
:100BE0002000200020001000100020002000100035
:100BF0000800040006000C00180010003CE63FE06E
:100C00003FE001200020003800200020003CE63FAB
:100C100008000E000600000008000E0006000E008E
:100C200008000600FE3F802080208020803F803F1B
:100C3000FE3FFE208220822082208220022082200D
:100C4000822082208220823FFE3FFE0082008200BE
:100C50008200820002003EFE3F7E2002200220022F
:100C600021023F023FFE00FE0080008000800080E5
:100C70003FFE3FFE00800080008000803FFE3FFE80
:100C800000C000A0009000883F863FFE20FE20822A
:100C90002082208220823FFE3F7E00080010000854
:100CA00000043FFE3F7E00400080000001003FFE48
:100CB0003FFE008200820082008200FE00FE008073
:100CC0003F803F80008000FE00FE008200820082A4
:100CD00000823FFE3F7E200220022402280217FEEF
:100CE0002FFE3FFE0082018202820C8218FE30FE3F
:100CF00018820C82028201823FFE3F7E200020008B
:100D0000200020003FFE3F7E100008000400080085
:100D10003FFE3FFE212020203CE03FE0210020005C
:100D20003CE03FE0110008001CE03FE023202220CF
:100D30003E203EE03FE0232023A03E603E00260010
:100D400032003E0030E01FE001203CE03F06381E4C
:100D500006F801E001E007183E0638E09FE0912028
:100D60009020FCE0FFE0112010201CE01FE0132089
:100D70001020FEE0FFFE3FFE012000203CE03FE0AF
:100D800023E0230022003EE03FE0110008003CE0A9
:100D90003FE0110C08043CE03FE0030003803E60AC
:100DA0003EFE3FFE038002403E203E2C2220222CAD
:100DB0003EE03FE0030002003EE03FE0032002206F
:100DC00002E003E0030002003EE03F2001F80738A4
:100DD000012007F807200100813FFE3F01000100CC
:100DE0006030E00D000F803D6030FE3F7E10000857
:100DF00000040002003FFE3F7E00020002000200ED
:100E000002000200FE3F7E10000803040102003FC2
:100E1000FE3F7E00020002000200023FFE3FFE2075
:100E2000FE20802080208020803FFE3F2038202C24
:100E300020262023E021FE3FFE200020FC3F002052
:100E4000803FFE3F7E2000200020003FFE7F00709C
:100E5000FE3FFE208020803F0000003FFE3FFE203E
:100E60000020FC3F0020803FFE7F00600260018088
:100E700000F80F800040032003FE3F8000FE3F7E0D
:100E8000200220023FFE3FFE208020802080208024
:100E90003F803FE23FE2212220223CFE3FFF2083B1
:100EA000208220832083200220E03F0020E03F00BA
:100EB00038E03FE021003CE07F0070E03FE02300AD
:100EC0003E0000E03F0020E03F0038E07F0060008F
:100ED000E03FE023003E003EE03F0003E03F2038DB
:100EE000E03FE0230022003E003EE033E00B20061E
:100EF000203EE03FEC2320222C22E023E0230C22A2
:100F0000043EE03FEC2120202C3CE03FEC2100207F
:100F10000C3CE03FE023202220222020FE3FFF0067
:100F2000830082008300833FFE3F7F200320022056
:100F30000320033FFE3F7F20012000200120013FCE
:100F4000FE3FFE20FE20802083208120803FFE3F48
:100F50007E0002000200020002000300FE33FE33A6
:100F60000C300C0C0003C00030300C30180FE410B3
:100F7000C22022231C1400080014FE20FE20822020
:100F800082208220823F823F400140014001400197
:100F9000400140014001FE077E08001000300018AB
:100FA000000FFE07023C023E0221822042203E202A
:100FB0001E20E00FE0110030001CE00FE09FE091E8
:100FC000009000FCE0FF7E3EFE018000FE3F8000BE
:100FD000C03F3E3FF80778040804FE3F08040807B6
:100FE000F807E03C0003E03F0006E039C00FC0080E
:100FF000E03F400CC00F063CE03F0600FE3FFE0114
:101000000220623C9E3FF200920092009E009200FD
:101010009200F200FE00010F20D39F11B21653532D
:101020004862B4768B667173532382327E32977630
:101030005472A7215C729B11A9619472B852C27656
:10104000A4767172D0768B738E7165737F73F8118D
:101050003E23EE42DE76F442EC76A0729973DC71A8
:10106000B1738872DC72E373C973D7738632B2715D
:10107000FD736C71F1730B7494721774257433746F
:1010800010728071BE71FA764B7477749A7108771A
:1010900088429A64D64231736E715B230163576450
:1010A00085646164C8646662A6646B6416174763EE
:1010B00024656C11B074F664BE64D464DE741F637E
:1010C0008F643D62EC64AC621877F8610265B065CC
:1010D000FA426C11E84227639F1199733C75DC71E9
:1010E0008671C872DC721D72267718753075FD73B3
:1010F0007A71F173D7739472EA711774B173807156
:10110000347742777774BC72567562755087CC71AC
:10111000D0716077BD736E773F74016370650C6545
:1011200035627A65C8640372EC7592659C65A66544
:101130000B63BC75C865BE642B62D46485642F7272
:101140000265DE75F861D2651266FA75066613638C
:101150001C6626663266526648667C773C665E761A
:101160004A658A375F339077766684759E67AA777B
:10117000B867C4778066D2776A66A5634243E04762
:10118000E847FE3F00200020002000200020002033
:101190000020F01F0C00020002000200FE3F0200CF
:1011A00002000200020002000200023FC200320000
:1011B0000E003000C000003FC00030000E004000B4
:1011C00030000C0003C00030000C00100020002094
:1011D00000200010FE0F0010002000200020001052
:1011E000FE0F02000200FE3F802080208020001FB2
:1011F0000000FE3F4220422042204420B810000F51
:10120000FE3F02000200020002000200FE3F3030FA
:10121000C00C00030003C00C303038C0060001F0E1
:101220003F0001C00630380844108220822082200E
:101230000411080E383006C001FE3FC00130060E12
:1012400038F03F1000100010001000F03F100010A8
:1012500000100010001000FE0F10101020102001D0
:10126000F80720012001F80720018000800080009D
:10127000F0078000800080008000800080008000F7
:10128000F83F84008200820003C00230020C02FE9C
:101290003F00020002200C18F0070C180220FE3F4D
:1012A00002200220022002200C18F0070C18022055
:1012B000022002200C18F007C80924124411E4137C
:1012C0000814F003000C00300030000CF00308207C
:1012D0000420FE3F0020002000200020FE3F006090
:1012E000F03F0C2002200220FE3F0060022002207E
:1012F0000220FE3F422042204220422002200220C3
:101300003C1E4001800040012002100420024001E8
:10131000800040013C1E02201E102110211021E0FF
:101320001F0020C01F200010001000F03F0021000F
:10133000210021001EF03F200010001000200010AE
:10134000001000200020001000080004000200042B
:1013500000080010004030300C00120012000C0099
:1013600010002000200010F60F0800060000000802
:1013700000060008000600E03F0600180FA4104217
:101380002042204220A410180FE410C22022231C67
:10139000140008001478088410022102210221049C
:1013A00011F80F44104220422042208410080FF808
:1013B0003F04010201020102010401F83F0400821E
:1013C00020E4201811000EF0070C18022002200261
:1013D000200C1810040C188220822082208C18F017
:1013E000070C180220022002230C191007FE3F40B0
:1013F000004000400040004000FE3F4200420042EA
:1014000000420002000200FE3F1800600080016000
:10141000001800FE3F4000600090008800040302B6
:101420003CFE3F0C003000C0000003000CFE3F02F9
:101430000102010201020184007800F0070C180289
:1014400020022202240C18F027FE3F0201020102B2
:1014500001020184067838840602010201020102B9
:1014600001FE3F000C0003C0000003000CFE3F2003
:1014700010202020204020801F40202020202020DD
:1014800010FE3F2000200020004000803F02300C72
:101490000C3003C00030030C0C0230C00F201010C1
:1014A00020102020104008A01010211021201240F0
:1014B0000C003000C0000003000C0030C007208882
:1014C000109010902048F03F20001000E03F1000E6
:1014D0001000E03FC00F2010102010202010C00F7F
:1014E0002011102110212011C009F0FF2008101038
:1014F00010102008C0072008101010102008F0FF5E
:101500000060F01F0020002000200010F03F2000AD
:10151000100010001000E03FF007008800900090DD
:101520000048F03F1021102190216012000CFE3F76
:1015300000180006800160001800FE3F00018001D5
:10154000400220040038FE3F0018010682016100BD
:101550001800FE3F42204220422042208210000F0D
:10156000201E162110211621E01F00207E00800081
:101570000001000100010001FE3F00200020F83FB3
:1015800000200020FE3FFC0F4210212021204110AE
:10159000800F4110212021204210FC0F011000205B
:1015A000002000200110FC0FF03F0010000C000292
:1015B0008001F03F0410080C08028401F03F000194
:1015C0008001400220041038102C1022102190209D
:1015D0007020F03FC0000003000C0003C000F03F8B
:1015E0000001000100010001F03F00200020002068
:1015F000F03F0060C00720082008F03F20082008C6
:10160000C00740082010102010201021A012400C0C
:10161000F03F00200020E03F00200020F03F0020AD
:10162000E03F0020F03F0060F001000200020002F5
:101630000002F03F00210021001E0000F03F0021C9
:10164000002100210021001E40082010102110213F
:101650002011C00F2611102110212611C009C038F9
:101660002005100210021002F03F0001E01F1020C0
:101670001020E01FF03F09010401040104010901E9
:10168000F03F10001000100010001C00C00F2610CA
:10169000102010202610C00F201110211021201022
:1016A000400830140C0803C01030280C10400240D1
:1016B000028001F00F8001400240020C0210022063
:1016C0004220622092100E0FFE337C108220FF7F9A
:1016D0008220FF7F8220041F183804240222022166
:1016E0000221842078303E0C221022202220222049
:1016F0004210820F40014001400140014001400181
:101700004001180004000200023382004400380047
:10171000FE0100060018002000180006FE01023835
:1017200002260221C22022201A200620E63FF00FC6
:1017300000100020F01F00200010F00F080C041013
:10174000022042204220A410180F3E0840108020A2
:10175000802080208010FE0FF80104020402FE3F6A
:1017600004020402F801FE3F00200020F83F0020A0
:101770000020FE3F0060FE3F8020802080208020EF
:101780000011000EFE3F8000F80F0410022004102C
:10179000F80FFC3F8520842084208420052004202D
:1017A0000520FC3F0520E007191804200420042030
:1017B0001918E007F01F0620002000200610F03F57
:1017C0003E0840108120822081208010FE0FF0070B
:1017D0000488089008900448F03FF0078C18822095
:1017E000822082200C181004FC3F04000400040036
:1017F000040004000700C400A20092008C00420014
:1018000092009A006600010000000A0000006400D7
:101810000000E803000010270000A08601004042FD
:101820000F008096980000E1F50500CA9A3B000180
:10183000010203040506000708090A0B0C020D0E3D
:101840000F1011121302001415020A1617180019AE
:101850001A02001B1C021D1E1F2021211D1E2223F7
:10186000242526272827292A2B2C292A2D2E2F30DC
:101870002D2731322D2E31323325292728272230AA
:10188000332522302D2E21343521212121343637A4
:1018900038393A3B3C3D3E3F40413E3F4243444560
:1018A000423D46474243464748393E3B3C3D36452C
:1018B00048393645424321494A21212121494B4C8F
:1018C0004C4D4E4F4F5051525354515556575859F5
:1018D0005A5B5C5D5E575F60614D626364654B6639
:1018E000674D4B6869571D6A6B202121216C00C030
:1018F000F0F8FC7C3E1E1E3E7CFCF8F0C00000FFB1
:10190000FFFFFF000000000000FFFFFFFF000003DB
:101910000F1F3F3E7C78787C3E3F1F0F0300000086
:1019200080C0E0F0F8FCFEFE0000000000000000B7
:1019300001010101FFFFFFFF0000000000000000A7
:1019400000000000FFFFFFFF00000000000000009B
:10195000787878787F7F7F7F7878787800000001CA
:1019600001010100000080C0F0FFFF7F1F000000A8
:10197000C0F0F8FC7E3F1F0F070301000000007F4E
:101980007F7F7F7978787878787E7E7E7E00007E93
:101990007E7E7E1E1E1E1E1E1EFEFEFEFE00000021
:1019A0000000000060F0F8FCFEFF9F0F07000080C1
:1019B00080808000000001030FFFFFFEF8000000A0
:1019C00000000000000080E0F8FEFE0000000000C3
:1019D000000080E0F8FE3FFFFFFFFF00000000E096
:1019E000F8FEFFEFE3E0E0FFFFFFFFE0E0000001B3
:1019F000010101010101017F7F7F7F01010000FEE4
:101A0000FEFEFE1E1E1E1E1E1E7E7E7E7E00007FB1
:101A10007F7F7F78787878F8F0F0E0C00000008071
:101A2000808080000000000001FFFFFFFF0000FF3A
:101A3000FFFFFFF0F0F0F0F0E0E0C080000000FFFA
:101A4000FFFFFF000000000103FFFFFFFE0000009A
:101A500000000000000080F0FEFFFF3F07000000D4
:101A60000000000080F8FFFFFF1F010000000000E1
:101A7000000000007F7F7F7F010000000000000762
:101A80009FFFFFFCF8F0F0F8FCFFFF9F070000FE4F
:101A9000FFFFFF030100000103FFFFFFFE00001F27
:101AA0007FFFFFF0E0C0C0C0C0FFFFFFFF000000ED
:101AB000000001010303030303FFFFFFFF00000019
:101AC0000000000080C0C080000000000000000096
:101AD00000000003070F0F070300000000000000D4
:101AE000000000C0E0F0F0E0C000000000000000D6
:101AF00000000000010303010000000000000000DE
:101B0000000000000000000000000000000000F2E3
:101B1000E6CE0E0E0E0E0E0E0602F8FCFE00007F44
:101B20003F1F00000000000000001F3F7F0000FF7B
:101B3000FEFC0000000000000000FCFEFF00005F53
:101B40004F6770707070707060401F3F7F000000C2
:101B500000000000000000000000F8FCFE00000093
:101B6000000000000000000000001F3F7F00000098
:101B700000000000000000000000FCFEFF0000026A
:101B8000060E0E0E0E0E0E0E0602F8FCFE000000F3
:101B90000080C0C0C0C0C0C0C0C09F3F7F0000FF69
:101BA000FEFC010101010101010100000000005FD4
:101BB0004F6770707070707060400000000000002F
:101BC00000000101010101010101FCFEFF000040D4
:101BD000406070707070707060401F3F7F0000F058
:101BE000E0C00000000000000000F8FCFE00007FE4
:101BF0003F9FC0C0C0C0C0C0C0C09F3F7F0000F2B8
:101C0000E6CE0E0E0E0E0E0E060200000000007F45
:101C10003F9FC0C0C0C0C0C0C0C08000000000FF67
:101C2000FEFC0101010101010101FCFEFF000000B9
:101C3000000000000E0E0E0E00000000000000006C
:101C4000000000007070707000000000000000F8DC
:101C5000FCFEFEFE0E0E0E0E0E0EFEFEFC0000FF43
:101C6000FFFFFF7F000000000000FFFFFF0000FFFC
:101C7000FFFF000000000000FEFFFFFFFF00003F2D
:101C80007F7F7070707070707F7F7F3F1F000000DB
:101C900000000000000000000000FCFEFC0000004E
:101CA00000000000000000000080FFFFFF000000B7
:101CB0000000000000000000FFFFFFFFFF00000029
:101CC00000000000000000003F7F7F3F1F00000871
:101CD0000C0E0E0E0E0E0E0E0E0EFEFEFC00000082
:101CE00080C0C0C0C0C0C0C0C0C0FFFFFF0000FFB8
:101CF000FFFF030303030303030303010000003F8B
:101D00007F7F7070707070707070703010000000A5
:101D10000103030303030303FFFFFFFFFF00003082
:101D200070707070707070707F7F7F3F1F0000F860
:101D3000FCFEFEFC000000000000FEFEFC0000FFB8
:101D4000FFFFFFFFC0C0C0C0C0C0FFFFFF0000F822
:101D5000FCFEFEFE0E0E0E0E0E0E0E0E0C0000FF12
:101D6000FFFFFFFFC0C0C0C0C0C0C080000000FFB8
:101D7000FFFF030303030303FFFFFFFFFF00000058
:101D800000000000040E0E0400000000000000002F
:101D9000000000002070702000000000000000F033
:101DA000FCFE3E0E0E0E0E0E0E3EFEFCF00000FF80
:101DB000FFFF0000000000000000FFFFFF00000F19
:101DC0003F7F7C7070707070707C7F3F0F000000F0
:101DD00000000030FCFEFEFC0000000000000000DF
:101DE0000000000000FFFFFF0000000000000000F6
:101DF00020707070707F7F7F7070702000000030E6
:101E00007C7E3E0E0E0E0E0E0E3EFEFCF00000001E
:101E10000000000000008080C0F0FFFF3F0000E0F5
:101E2000F8FC7E1E0F0F0707030301000000003FB0
:101E30007F7F7870707070707070787830000000FC
:101E400000000080C0C0C0C0C0F0FFFF3F00000025
:101E500000000000010101010107FFFFFE00000C6E
:101E60003E7E7C7070707070707C7F3F0F00000051
:101E7000000000000080E0F8FCFEFC000000000014
:101E80000080E0F87E1F0701FFFFFF000000001840
:101E90003E3F3F3938383838FFFFFF381000000028
:101EA00000000000000000003F7F3F00000000FC39
:101EB000FEFE1E0E0E0E0E0E0E0E1E1E0C00003F1F
:101EC000FFFFF0C0C0C0C0C0C0C0C08000000000A4
:101ED00000010101010101010107FFFFFE0000F007
:101EE000FCFE3E0E0E0E0E0E0E3E7E7C300000FFFF
:101EF000FFFFC0C0C0C0C0C0C0C0C080000000FFA5
:101F0000FFFF0101010101010107FFFFFE00000CBD
:101F10001E1E0E0E0E0E0E0E0E0EFEFEFC0000001D
:101F20000000000000000080E0FCFF3F0700000010
:101F30000000000000F0FEFF1F0300000000000092
:101F400000000000003F7F3F000000000000003F55
:101F5000FFFFF0C0C0C0C0C0C0F0FFFF3F0000FEE8
:101F6000FFFF0701010101010107FFFFFE00003F24
:101F7000FFFFF0C0C0C0C0C0C0C0FFFFFF00000036
:101F800000010101010101010101FFFFFF0000004B
:101F900000000000070F0F07000000000000000015
:101FA00000000000E0F0F0E0000000000000000091
:101FB000000000001E3F3F1E000000000000A221A4
:101FC0004A20AA215220B9216120CB217320D0219F
:101FD0007620DA218020E9218E20ED21ED21F521E6
:101FE000F521F82192200022002204229C200822C0
:101FF000A1200E22A7201322000021226A212F22D5
:10200000AB203E22B9204C22C7205D22DB206E226D
:10201000ED208022FF208E2211219A221C21A42251
:102020002921B4223921BD224821C6225A21CF229A
:102030007521D6227C21DD228221E4228821EB2217
:102040008E21F2229421F9229B2190B3B1B1AAA84A
:10205000A90090AEB1B1A8BF2C2091A0ACA0B0A0B7
:10206000008FAEA3B0A5A1ADBFAA2084ACA8B2B02A
:10207000A8A900AEB2008FB0AEB8A8A2AAA03A003C
:102080008AA0ABA8A1B0AEA2AAA02E2E2E00AA8331
:10209000B600B1A5AA2FB1B3B2AAA80084A5ADBC61
:1020A000008CA5B1BFB60083AEA4008AA0ABA8A1E6
:1020B000B0AEA2AAA020968F0092A5ACAFA5B02E7C
:1020C000AAAEBDB4B42E008AA0ABA8A1B02E74D124
:1020D00020AAB0A8B1B2A0ABABA0009FB0AAAEB18D
:1020E000B2BC2028A0ABBCB2A5B02E29009FB0AADC
:1020F000AEB1B2BC2028AEB1ADAEA2AD2E290082E9
:10210000A8A7B3A0ABBCADBBA920BDB4B4A5AAB26F
:102110000091B2A8ABBC20B6A8B4B00098B0A8B4E7
:10212000B220B2A5AAB1B2A0008AA0ABA8A1B0AE5D
:10213000A2AAA020B5AEA4A00093B1B2A0ADAEA259
:10214000AAA020A4A0B2BB0093B1B2A0ADAEA2AA37
:10215000A020A2B0A5ACA5ADA8009FA7BBAA202F28
:10216000204C616E67756167650091AEB5B0A0AD3A
:10217000A8B2BC3F00828E918A902E0091938181FB
:102180002E008F9F928D2E00978592822E00919027
:102190008584800082928E908D2E008F8E8D858416
:1021A0002E00456E676C69736800527573736961C0
:1021B0002C2053616D61726100506F677265626EB1
:1021C00079616B20446D697472790066726F6D007D
:1021D0004669726D776172653A0043616C6962723B
:1021E0006174696F6E2E2E2E006B487A0070706DD0
:1021F0002FD143D200D143007365632F646179000E
:1022000070706D00446179004D6F6E74680059659F
:102210006172004142432C78797A2E303132332179
:102220000053617665206368616E6765733F0043A4
:1022300050552073706565642063616C2E0054688E
:1022400065726D616C206B6F65662E0043727973E9
:1022500074616C6C2074D12063616C2E00427269D1
:102260006768746E6573732028616C74290042720C
:10227000696768746E65737320286D61696E2900E3
:1022800056697375616C20656666656374004469A0
:102290006769747320666F6E740054657874206685
:1022A0006F6E7400436C6F636B2063616C69627264
:1022B00061746500536574206461746500536574CE
:1022C0002074696D65004C616E67756167650053C8
:1022D000554E4441590053415455524400465249C9
:1022E00044415900544855525344005745444E45C3
:1022F0005300545545534459004D4F4E44415900E5
:1023000000C000C0C000C0C0C0FCF8F0E0C0800049
:102310000003000303000303033F1F0F0703010033
:1023200000003078FCFE30303070E0C0000000006B
:10233000000000000031303030381F0F0000000076
:10234000000000000080C000000000FCFC00000055
:10235000000000060F1F3F060606070301000000ED
:102360000000C0800000000080C0E030180C0000B9
:1023700000000103071E3E1F0701000000000000CF
:1023800000000C1C3870E0C0E0F0381C0C000000AD
:1023900000000030381E0703010307060C1C000074
:1023A000000080C0E0F0F8FCFCF8F0E0C080000025
:1023B0000000000000003F3F3F3F00000000000021
:1023C00000000000000000FCFCFCFC00000000001D
:1023D0000000000103070F1F3F3F1F0F070301000D
:1023E0000000000060C080FEFE80C06000000000B1
:1023F000006058444445475F5F4745444458600087
:1024000000C0300844041202029244640830C00044
:102410000023120A12621A2243221A2242221300B5
:102420002E20462042203E203A2036203220525490
:10243000430001B0001205030002050A10171F280F
:1024400033404D5C6C7D90A3B8CFE7FF00030306DB
:10245000010406020500030511241FBECFEFD8E0DA
:10246000DEBFCDBF11E0A0E0B1E0EAE4FFE602C0CC
:1024700005900D92AC30B107D9F721E0ACE0B1E0A6
:1024800001C01D92AF35B207E1F70E94C62C0C9433
:10249000A3370C94000053985B9A54985C9A089563
:1024A000CF930E94B92F4B9B21C080911C018823A0
:1024B000A9F087E191E00E94E1308823A1F1C1E019
:1024C00080911C01813009F0C0E010921C0160E293
:1024D0007EE487E191E00E94D23028C060E27EE491
:1024E00087E191E00E94D230C0E020C080911C01C1
:1024F000811111C087E191E00E94E1308823A9F0A9
:1025000081E080931C0160E47FE187E191E00E941B
:10251000D230C0E00BC060E47FE187E191E00E942F
:10252000D230C0E003C0C0E001C0C0E04C9B1FC07F
:10253000809116018823A1F081E191E00E94E130B1
:10254000882379F180911601813009F4C1E010925D
:10255000160160E27EE481E191E00E94D23021C068
:1025600060E27EE481E191E00E94D2301AC0809165
:102570001601811110C081E191E00E94E1308823B1
:1025800081F081E08093160160E47FE181E191E0D8
:102590000E94D23006C060E47FE181E191E00E94B8
:1025A000D230CC23C1F080910F0184FF07C09091FD
:1025B0001C01913019F492E090931C0185FF07C033
:1025C00090911601913019F492E0909316011092B7
:1025D0000F0182606DC080911C01813009F05BC0E9
:1025E00060C080E001C080E1806204C010920F01F1
:1025F00080E05EC090910F01981751F080930F0119
:102600009FEF90930D019DE390930E01816050C068
:1026100080914D0120911001281303C0892F836000
:1026200047C08093100180910E01882331F08150C2
:1026300080930E01892F83603BC080910D018F3FF5
:1026400059F48FE080930D0180930E0181E0809317
:102650000C01892F84602CC020910C01222321F0D1
:10266000215020930C0110C0282F30E02D5F3F4FE8
:102670003595279535952795821B80930D01869575
:1026800028E0281B20930C0180910D0180930E01FE
:10269000892F85600DC080911601813009F0A6CF89
:1026A000A0CF80911601813009F49DCF80E1A2CFA7
:1026B000CF91089580910F01882361F080910D01E1
:1026C0008F3F41F08FE080930D0180930E0181E0F8
:1026D00080930C01089580911C01813019F482E0EF
:1026E00080931C0180911601813019F482E080935F
:1026F00016010895FF920F931F93CF93DF938C01E0
:10270000D62FF42EC0914D0103C0C82F01C0C82F91
:102710000E945012882321F0982F9F70933099F4D3
:1027200080914D01C81731F00115110519F00150C4
:10273000110941F0DD2349F390914E019F1539F3C2
:1027400080E001C080E0DF91CF911F910F91FF9059
:102750000895843010F480931D01089580911D0127
:1027600008959F92AF92BF92CF92DF92EF92FF9225
:102770000F931F93CF93DF9366230CF456C0F62E6E
:102780008C3040F0E12C00E020E144E080E00E9449
:1027900063194CC020911D0130E08901000F111F09
:1027A000020F131F000F111F000F111F080F111D23
:1027B000000F111F000F111F025D174E80E78617D3
:1027C00020F480E8E82EE61A03C06894EE24E4F8CA
:1027D000912CAA24AA94AE0CB12CEFEFAE1ABE0A2B
:1027E0006F2D892D0E94331C882301F1F801C491BB
:1027F000F0E1CF9FE0011124C251D74EEE2069F0E5
:102800006E01CA0CDB1CFE0184910E94C91A882348
:1028100069F02196CC15DD05B1F793940F5F1F4F3A
:10282000F4E09F12DDCF81E001C081E0DF91CF9124
:102830001F910F91FF90EF90DF90CF90BF90AF90DE
:102840009F900895843688F09CE9980F943638F06C
:1028500098E3980F943630F08C5223E007C0892F0C
:1028600021E004C0892F22E001C020E08A3038F046
:1028700090E08A509F5F8A30E0F7911104C091E0A8
:10288000411190E09195FB0190838183822F0895FF
:102890008091000108958093000108952F923F9246
:1028A0004F925F926F927F928F929F92AF92BF9260
:1028B000CF92DF92EF92FF920F931F93CF93DF930C
:1028C000CDB7DEB7A8970FB6F894DEBF0FBECDBF69
:1028D000E62E498B2090000132E0231609F407C24E
:1028E000321520F041E0241651F0A9C453E025161A
:1028F00009F408C164E0261609F4BEC3A0C422236B
:1029000009F4C7C4E22FF0E0E656FF4F74917E8BC6
:102910008C30D0F420911D0130E0A901440F551FE7
:10292000240F351F220F331F220F331FF901E80F29
:10293000F11DCF01880F991F880F991F9C01225DFF
:10294000374E3B8B2A8B02C01B8A1A8A3BE03E150E
:10295000C8F080911D0190E04C01880C991C880DF5
:10296000991D880F991F880F991F4C018E0C911C7F
:10297000C401880F991F880F991FAC01425D574E03
:102980004A0102C0812C912C5989513720F080E8EE
:10299000482E451A03C06894442444F81C8A8E01CA
:1029A0000F5E1F4F6E8961956A8FA12CBB24B39473
:1029B000188E1C8E1D8E3E8869898C890E94331C5E
:1029C000882309F49BC0FE013196119211920E17D3
:1029D0001F07D9F78A899B89009779F00196EA89C0
:1029E000FB892491F0E12F9F90011124A90142510C
:1029F000574E6A019B8B8A8B02C0C12CD12C5A8CFA
:102A0000F12CE12C60E0712C612CE11026C05FE01C
:102A1000571578F481149104B1F0F4018491F0E138
:102A20008F9FC00111249C012251374E6901532C04
:102A3000712CC114D10469F0C6010196F601F4901D
:102A4000E52C6C0108C0EE88712CF88CCC8CDD8CE8
:102A500002C0E52CF88C73945E2C462F50E08E2D2E
:102A600090E09501241B350B281739071CF4A62F7D
:102A7000A19501C0AE2DEA1AFE01319671E02A2F10
:102A800030E08F2D872331F080819181820F931F59
:102A900091838083770F3296E017F10791F74A0F01
:102AA000511D4F3F5105D9F0D4F0FE01319680E021
:102AB0008695DF01208131812038310508F080685A
:102AC0001D921C9232960E171F0791F70E94C91A89
:102AD0008823B1F06394641420F460E096CF6A0F09
:102AE00094CF8114910419F0FFEF8F1A9F0A2C895B
:102AF0002F5F2C8B243009F05FCFCBC3282EC9C3A6
:102B0000282EC7C3222309F4A0C3E22FF0E0E65623
:102B1000FF4F249130E02C5F3F4F35952795359539
:102B2000279535952795522E569456945694422FB4
:102B30004770F42E53E05515D8F46BE06E15A8F1EC
:102B400080911D0190E09C01220F331F820F931F83
:102B5000880F991F880F991F8E0D911D880F991F3F
:102B6000880F991FFC01E25DF74E5F01512C23C0D5
:102B70008C30F8F420911D0130E0A901440F551F5D
:102B8000240F351F220F331F220F331FA901480FB7
:102B9000511DCA01880F991F880F991F850D911D1E
:102BA000BC01625D774E5B0106C0A12CB12C512C9B
:102BB00002C0A12CB12C7989713720F080E8682EF1
:102BC000671A03C06894662464F8412C212C8E2D6A
:102BD00090E09B8B8A8B88E090E04C018F189108E5
:102BE000312CA114B10409F436C3F5018491F0E14C
:102BF0008F9FC00111249C012251374E69015394CB
:102C000033E0351530F04FEFA41AB40A1EC0C12CC2
:102C1000D22C5BE05E1528F180911D0190E09C01B3
:102C2000220F331F820F931F880F991F880F991F40
:102C30006A897B89860F971F880F991F880F991FB4
:102C4000FC01E25DF74E5F01512CA114B10479F053
:102C5000F5010491F0E10F9F800111240251174EFC
:102C600008C0512CA12CB12C00E0122D02C000E0B4
:102C7000122D6989842D0E94331C882309F4FCC21B
:102C8000662071F1712CC114D10439F096012F5FC7
:102C90003F4FF6018491690101C0832DFF20C1F0EF
:102CA00090E00F2C02C0959587950A94E2F70115E4
:102CB000110571F098012F5F3F4FF801049110E06A
:102CC000082C02C0000F111F0A94E2F7802B890123
:102CD0000E94C91A882309F4D1C273947610D3CF05
:102CE0004394F4E04F127DCF22242394D2C22223B6
:102CF00009F4AEC2E22FF0E0E656FF4F249130E037
:102D00002C5F3F4F35952795359527953595279518
:102D10002A8B8C30D0F440911D0150E0BA01660F2F
:102D2000771F460F571F440F551F440F551FBA01F9
:102D3000680F711DCB01880F991F880F991FFC0127
:102D4000E25DF74EFD8BEC8B02C01D8A1C8AFBE016
:102D5000FE15C0F080911D0190E0AC01440F551F9D
:102D6000840F951F880F991F880F991F8E0D911D35
:102D7000880F991F880F991FAC01425D574E5F8BDA
:102D80004E8B02C01F8A1E8A5989513720F080E875
:102D9000482E451A03C06894442444F888E090E023
:102DA000821B9109682F6295607F6D8F8E899F8944
:102DB0009B8F8A8FEC89FD89F8A3EF8FF98FE88FBD
:102DC000212C1C8E6894FF24F4F83A88F0EF3F0E13
:102DD00039A22A8928512AA3AC014E5F5F4F5CA318
:102DE0004BA3BC016D5F7F4F7EA36DA37F2D8A89AE
:102DF000781B7E8FEC89FD893196F8A7EFA369894E
:102E0000822D0E94331C882309F43AC2F1E0F215A6
:102E100008F450C02E893F89232B61F0EA8DFB8D89
:102E20008491F0E18F9FC00111249C012251374E03
:102E3000690102C0C12CD12C3A89303108F097C009
:102E4000BE8C4C895D89452BA9F0EF8DF8A10491CA
:102E5000F0E10F9F800111240251174EEFA1F8A558
:102E60008491F0E18F9FC00111249C012251374EC3
:102E7000490104C0812C912C00E010E0222009F4CB
:102E800066C03A89383068F44E8D5D8D541708F469
:102E9000ECC1552E712C842F581A73945816E0F7F4
:102EA000E6C1AA8868EFA60E512C712C6894EE2416
:102EB000E3F858C08C899D89892B61F0E88DF98DE4
:102EC0008491F0E18F9FC00111249C012251374E63
:102ED000690102C0C12CD12C3A89313108F447C0B4
:102EE000B32C4E895F89452BA9F0EBA1FCA104917D
:102EF000F0E10F9F800111240251174EEDA1FEA1B8
:102F00008491F0E18F9FC00111249C012251374E22
:102F1000490104C0812C912C00E010E032E023161E
:102F2000E9F04A89493118F150E8531548F0712CFD
:102F30006894552457F8531873945314E0F704C059
:102F4000712C6894552457F8EAA0A12C0BC0AA88CC
:102F5000512C712C6894EE24E3F804C0E9A0512CA4
:102F6000712CA12CAE1418F4411019C072C0442069
:102F700009F46FC010E0C114D10439F096012F5F3D
:102F80003F4FF6018491690101C08C8D0E94C91ADE
:102F9000882309F477C11F5F1411EDCF5AC0612C4B
:102FA000C114D10439F096012F5F3F4FF60184918F
:102FB000690101C080E00115110579F0A8014F5F9A
:102FC0005F4FF8012491B4016F5F7F4FF40184904B
:102FD00030E038294B018A0102C020E030E0772040
:102FE00029F0972D369527959150E1F7AA2031F0D9
:102FF0009A2D61E0660F9150E9F701C061E09F2DC5
:1030000095197A2D50E0E0E0911103C0369527958F
:103010009B2D4F2D451B941708F4492F20FDE40FDD
:10302000941B540F503158F0E83010F0862B03C039
:10303000462F40958423660F7F5F50E0E0E07E15C9
:1030400018F30E94C91A882309F41EC1639446101C
:10305000A7CF23942A8D3B8D2F5F3F4F3B8F2A8F25
:10306000488D598D4F5F5F4F598F488F54E025121F
:10307000C6CE222423940DC1F22EFF0CFF0CFF0CB0
:10308000482F50E02E2D30E06DEB77E6469F800113
:10309000479F100D569F100D1124EDE8F6E52E9F69
:1030A000B0012F9F700D3E9F700D1124060F171F4A
:1030B0008C30C0F480911D0190E0BC01660F771F39
:1030C000860F971F880F991F880F991F480F591F48
:1030D000440F551F440F551FBA01625D774E7B8B1D
:1030E0006A8B02C01B8A1A8A7BE07E15B8F0809139
:1030F0001D0190E0AC01440F551F840F951F880FF0
:10310000991F880F991F280F391F220F331F220F75
:10311000331FC901825D974E4C0102C0812C912C56
:103120009989913720F080E8482E491A03C06894A5
:10313000442444F86894EE24E4F8212C0F2EF5E69C
:103140006F2EFFEC7F2EF02D6989822D0E94331C9B
:10315000882309F49BC0EA89FB89309779F09F01A5
:103160002F5F3F4F8491F0E18F9FC0011124AC018C
:103170004251574E6A013B8B2A8B02C0C12CD12C85
:103180008114910471F0C4010196F4012491F0E1DD
:103190002F9F90011124A9014251574E5A014C0111
:1031A00002C0A12CB12C442009F440C00F2EF0EF36
:1031B0003F2EF02D3E0C512CC114D10431F0C6012C
:1031C0000196F60164916C0101C060E0A114B104A4
:1031D00031F0C5010196F50174915C0101C070E008
:1031E000432D80E051E098012F5F3F4F269D8001E5
:1031F000279D100D369D100D1124912F96959695B3
:10320000292F220F920F940F9F1510F0962F01C0B7
:10321000972F9523892B4E5F550F4E11E4CF0E94B7
:10322000C91A8823A9F153945410C6CF2394F0E10E
:10323000EF0E24E0221288CF222423942AC0698929
:103240008E2D0E94B113282E24C02224239421C045
:10325000222423941EC0539433E0351508F4D7CCB0
:10326000C12CD22C00E0122D04CD5D8C712C689401
:10327000EE24E3F8A12C78CE282E0BC0282E09C00E
:10328000282E07C0282E05C0282E03C0282E01C0D6
:10329000282E822DA8960FB6F894DEBF0FBECDBFA4
:1032A000DF91CF911F910F91FF90EF90DF90CF9022
:1032B000BF90AF909F908F907F906F905F904F9056
:1032C0003F902F900895CF92DF92EF92FF920F934D
:1032D0001F93CF93DF93D82F162F66230CF44DC086
:1032E000843008F04CC080E8F82EF61A2F1508F448
:1032F000F22E242F30E084E090E08D1B910982179C
:1033000093071CF0DD2ED40E03C06894DD24D2F8A0
:10331000DD15B8F58FEF8F0D912F9170C92E10FD2F
:10332000F82E612F8D2F0E94331C882359F1CC2059
:1033300029F08E2D0E94C91A882321F181E08F1572
:1033400078F4CF2D802F0E94C91A8823D9F08E2DB2
:103350000E94C91A8823B1F0C250C23098F701C048
:10336000CF2DCC2329F0802F0E94C91A882351F039
:10337000DF5FDD15B0F281E005C081E003C081E0D0
:1033800001C081E0DF91CF911F910F91FF90EF90ED
:10339000DF90CF900895EF920F93E62E082F20E84C
:1033A00044E060E080E00E9463190F91EF9008957F
:1033B00060E080E00E94CB19882351F060E080E05B
:1033C0000E94331C91E0811101C090E0892F089583
:1033D00080E008956F927F928F929F92AF92BF92FA
:1033E000CF92DF92EF92FF920F931F93CF93DF93D1
:1033F000982E662E6A0183E0891508F43FC0662383
:103400000CF43EC080E8882E861A081508F4802E39
:10341000422F50E084E090E08919910984179507C4
:103420001CF0792C720E03C06894772472F89714FC
:1034300048F5AA24AA94A80CB12CEFEFAE1ABE0A44
:1034400010E0662D892D0E94331C8823E1F088202E
:1034500071F0E6017601EA0CFB1CFE0184910E94EA
:10346000C91A882381F02196EC16FD06B1F79394D2
:10347000C00ED11E971428F381E005C081E003C07F
:1034800081E001C081E0DF91CF911F910F91FF900A
:10349000EF90DF90CF90BF90AF909F908F907F90F4
:1034A0006F90089580E090E0ECEBF0E002C00197AF
:1034B00039F020812223DCF78091B900887F0895BC
:1034C00080E008950E94521A94E99093BC000895F8
:1034D000CF9320E030E0ECEBF0E003C02150310965
:1034E00019F18081C82FC07184FDF8CF84EA8093E0
:1034F000BC000E94521A803179F0883069F0ECEB00
:10350000F0E080E8808300C084EA80830E94521A41
:10351000883011F0803149F488E78093BB0084E85B
:103520008093BC00C1E001C0C0E08C2FCF91089512
:103530009091BC0099232CF40BC02150310929F43F
:1035400018C020E030E0ECEBF0E090819923ACF77C
:103550009091B9008093BB0084E88093BC00987F71
:10356000983229F081E0983129F080E0089581E0D7
:10357000089580E0089510921E011092B9001092F3
:10358000B80084E08093BC0081E008951092BC00F4
:103590000895CF93DF93D82F80911E01811106C02B
:1035A0000E94681AC82F811103C01CC0823071F0BC
:1035B00080E40E94981AC82F811105C00E94621AE7
:1035C00010921E010FC082E080931E018D2F0E9479
:1035D000981AC82F811105C00E94621A10921E010C
:1035E00001C0C1E08C2FDF91CF910895CF93DF937D
:1035F000D82F80911E01813029F00E94681AC82FAF
:103600008823D1F081E080931E0180E80E94981AFF
:10361000C82F811105C00E94621A10921E010CC0B1
:103620008D2F0E94981AC82F811105C00E94621A1E
:1036300010921E0101C0C1E08C2FDF91CF9108953F
:10364000CF9380911E018823A1F00E94521AC82FA7
:1036500010921E010E94621A882339F0C83239F094
:1036600081E0C83139F080E005C080E003C081E02E
:1036700001C081E0CF910895CF93C62F0E94F61A22
:10368000882349F08C2F0E94F61A91E0811101C025
:1036900090E0892F01C080E0CF910895CF930E94E0
:1036A000BB1A982F882309F4CBC085E090E00E94D4
:1036B000EE2FC6E083EE0E94F61A982F882309F4B5
:1036C000BFC0C150B9F70E94201B982F882309F46E
:1036D000B7C08EEA0E94F61A982F882309F4B0C06A
:1036E0000E94201B982F882309F4AAC084E190E04F
:1036F0000E94EE2F8EE20E94F61A982F882309F47A
:103700009FC06FE188EA0E943C1B982F882309F430
:1037100097C060E083ED0E943C1B982F882309F43A
:103720008FC080E40E94F61A982F882309F488C07D
:1037300081EA0E94F61A982F882309F481C088EC48
:103740000E94F61A982F882309F47AC062E08AED65
:103750000E943C1B982F882309F472C060E881E81E
:103760000E943C1B982F882309F46AC084EA0E94B7
:10377000F61A982F882309F463C086EA0E94F61A85
:10378000982F882309F45CC060E885ED0E943C1BFB
:10379000982F882309F454C062E289ED0E943C1BF3
:1037A000982F882309F44CC062E280E20E943C1BFF
:1037B000982F882309F444C080EB0E94F61A982FB2
:1037C0008823F1F181E20E94F61A982F8823C1F133
:1037D0006FE780E00E943C1B982F882389F182E2EA
:1037E0000E94F61A982F882359F163E080E00E9426
:1037F0003C1B982F882321F160E28BED0E943C1B3B
:10380000982F8823E9F064E18DE80E943C1B982FF3
:103810008823B1F00E94201B982F882389F00E94F2
:10382000D819982F882361F08FEA0E94F61A982FF2
:10383000882331F00E94201B91E0811101C090E0AB
:10384000892FCF910895682F81E80E943C1B88231F
:1038500041F00E94201B91E0811101C090E0892F6E
:10386000089580E00895CF93C62F8770806B0E94E3
:10387000F61A882371F06C2F6F708C2F82958F70E1
:1038800080610E943C1B91E0811101C090E0892F72
:1038900001C080E0CF9108959F92AF92BF92CF92E6
:1038A000DF92EF92FF920F931F93CF93DF93D62E69
:1038B000F42EE90190910101691708F094C0843059
:1038C00008F093C090912101292F2170A22EA1947C
:1038D0009270B92E0E94331CE1FE1DC08A2D0E94F9
:1038E000C91A882309F48AC081E08D0D90910101E5
:1038F000891708F083C0BB2069F08A2D0E94C91A7D
:10390000882309F47BC0D394D39480910101D81605
:1039100010F06DC0D82EFF2009F453C010E0FE0156
:103920008491CC2011F082958F70E82FE270F0E046
:10393000682F647070E0282F287030E08170982F15
:103940009E2B990F892BEE0FFF1FEE0FFF1F8E2B63
:10395000FB01EE0FFF1FEE0FFF1F8E2B660F771F71
:10396000660F771F660F771F682BC901880F991F95
:10397000880F991F880F991F682B22953295307FE9
:103980003227207F3227262B922E9A24892D0E94BF
:10399000C91A81E08D0D90910101891778F5BB203E
:1039A00051F0892D0E94C91AD394D39480910101BA
:1039B000D81610F01EC0D82EC00FD11FFA94F110E7
:1039C000AECFE0FE18C08A2D0E94C91ABB2041F07C
:1039D000D39480910101D81680F48A2D0E94C91ACF
:1039E00081E08D0D0BC0862F09C0862F07C08D2D5D
:1039F00005C08D2D03C08D2D01C08D2DDF91CF9180
:103A00001F910F91FF90EF90DF90CF90BF90AF90FC
:103A10009F9008959F92AF92BF92CF92DF92EF92C4
:103A2000FF920F931F93CF93DF93D62F142F69012B
:103A300090910101691708F068C0843008F067C0F0
:103A4000C09121010E94331C882309F469C08C2F86
:103A50008170982E9194C270FC2EE1FE1CC0892DBD
:103A60000E94C91A882309F45BC081E08D0F9091F0
:103A70000101891708F054C0CC2361F0892D0E9400
:103A8000C91A882309F44CC0DE5F80910101D81760
:103A900010F03FC0D82F112311F1A02EB12CF60148
:103AA000C491C9258C2F0E94C91A8823C9F181E0CD
:103AB0008D0F90910101891798F5FF2059F08C2FF7
:103AC0000E94C91A882361F1DE5F80910101D81735
:103AD00010F021C0D82FCA0CDB1C115001F7E0FEFA
:103AE0001CC0892D0E94C91A8823D1F0FF2051F0F3
:103AF000DF5F80910101D81790F4892D0E94C91AC7
:103B0000882371F081E08D0F0BC0862F09C0862FAE
:103B100007C08D2F05C08D2F03C08D2F01C08D2FA5
:103B2000DF91CF911F910F91FF90EF90DF90CF9099
:103B3000BF90AF909F9008951092200110921F01A6
:103B40001092210180E88093010108959093230150
:103B500080932201089580931F01609320010895AE
:103B600020910101882314F0982F01C090E89093D0
:103B70000101822F08959F92AF92BF92CF92DF9260
:103B8000EF92FF920F931F93CF93DF93C091200189
:103B900090910101C91708F0DAC0D0911F01D4300B
:103BA00008F0D7C060912201709123016115710561
:103BB00009F4D1C0FB01F4903196049131969491AF
:103BC0003196E49121E0891708F020E02111C5C069
:103BD00021E0E81708F020E02111BFC0DB011496B6
:103BE000482F50E0491B5109440F551FFD01E40FB8
:103BF000F51FE4912E2F30E0FA013196EA0FFB1FFA
:103C0000E491DE2ED694D694D694D694EF703E2BC3
:103C10005B01A20EB31E80912101182F147082FF48
:103C200066C0102F187003FF43C0C12CEF2C02E0B8
:103C300095014D2D6C2F8D2F0E944C1C982E8823A2
:103C400009F48DC081E08D0F843008F08AC0CC2447
:103C5000C39495014D2D6C2F0E944C1C182F882366
:103C600009F48AC082E08D0F843008F07CC0FFEF39
:103C7000AF1ABF0AC12C95014D2D6C2F0E944C1C10
:103C8000182F882309F478C083E08D0F843008F062
:103C90006CC0CC24C39495014D2D6C2F0E944C1CFC
:103CA000182F882309F468C09092200111E064C0A5
:103CB000C12CEF2C01E095014D2D6C2F8D2F0E9412
:103CC0004C1C982E882309F457C081E08D0F843056
:103CD00008F04DC095014D2D6C2F0E944C1C182FE3
:103CE000882309F449C09092200111E045C0802F3B
:103CF0008870C82E03FF1DC0EF2C02E095014D2DEA
:103D00006C2F8D2F0E940A1DC82E8823A9F181E0F7
:103D10008D0F843070F595012F5F3F4F4D2D6C2F27
:103D20000E940A1D182F882339F1C092200111E04A
:103D300023C0EF2C01E095014D2D6C2F8D2F0E949B
:103D40000A1D8823C1F08093200111E015C011E005
:103D500013C011E011C011E00FC011E00DC010E060
:103D60000BC011E009C011E007C011E005C011E06F
:103D700003C011E001C01C2D812FDF91CF911F9155
:103D80000F91FF90EF90DF90CF90BF90AF909F90FA
:103D9000089520912201309123012115310541F12F
:103DA000F9015491329694913196E49141E089174A
:103DB00008F040E041111EC041E0E81708F040E083
:103DC000411118C0E82FF0E0E91BF109EE0FFF1FC9
:103DD000E20FF31F3596849182958F7051FD8F5FAE
:103DE00050FD8F5F9091210191FF05C0880F0895CC
:103DF00080E0089581E008954F925F926F927F92E4
:103E00008F929F92AF92BF92CF92DF92EF92FF92EA
:103E10000F931F93CF93DF934B015C01642E722E9F
:103E2000211113C09091200180910101981708F091
:103E300065C080911F01843008F063C08091220129
:103E400090912301892B09F45FC00AE218E1C9E0CF
:103E5000D0E0C12CD12C512C44244394E62CF12CDD
:103E6000F801459155916591749184169506A606C1
:103E7000B70670F080E08F5F841A950AA60AB70A29
:103E800084169506A606B706B0F7811149C001C091
:103E900080E0EC16FD060CF043C07720A1F0552021
:103EA00039F001C0542C805D0E94C91EC80ED11C7F
:103EB0006620D1F0CE15DF05B9F48EE20E94C91E4E
:103EC000C80ED11C11C0552029F0805D0E94BB1D79
:103ED0008823E9F0662041F0CE15DF0529F48EE253
:103EE0000E94BB1D8823B1F004501109219708F0EE
:103EF000B7CF772091F08C2D9D2D16C081E090E0FA
:103F000013C081E090E010C081E090E00DC080E03F
:103F100090E00AC080E090E007C081E090E004C03B
:103F20007110C0CF542CD1CFDF91CF911F910F9141
:103F3000FF90EF90DF90CF90BF90AF909F908F90C9
:103F40007F906F905F904F900895909121019E7F98
:103F5000811103C0909321010895916090932101F4
:103F60000895EF92FF920F931F93CF93DF93182F33
:103F7000F090200180910101F816A8F5412F50E042
:103F8000282F30E02F1931092417350714F4182F82
:103F90001F19E0912201F09123013196E491E3FD94
:103FA0002FC02CC000911F010430C0F4E02EE80E99
:103FB0006F2D802F0E94331C882341F1112349F07B
:103FC000C0E08D2F0E94C91A882301F1CF5F1C1316
:103FD000F8CF0E1519F00F5F043051F71F0D109335
:103FE000200181E013C081E011C0D170D1958150D2
:103FF000D9CF880FD170D1958150D4CF81E001C045
:1040000082E0D0912101D2FFF0CFF3CFDF91CF91A9
:104010001F910F91FF90EF900895909101018917E2
:1040200008F4982F80912001891728F4981B892F74
:104030000E94B11F089581E00895CF93DF93009708
:1040400099F0EC0109C0FE018491882379F00E9467
:10405000BB1D2196882359F0909120018091010188
:10406000981788F381E003C080E001C081E0DF9110
:10407000CF9108950F931F93CF93DF930097A1F0F3
:10408000EC012196FC018491882389F000E010E086
:104090000E94C91E080F111DFE01849121968111F5
:1040A000F7CF802F912F05C080E090E002C080E024
:1040B00090E0DF91CF911F910F91089520E00E9431
:1040C000FC1E089521E00E94FC1E0895CF92DF920D
:1040D000EF92FF92CF936B017C01C42F99236CF474
:1040E0008DE20E94BB1D882371F0F094E094D0947F
:1040F000C094C11CD11CE11CF11C20E04C2FC70155
:10410000B6010E94FC1ECF91FF90EF90DF90CF9000
:104110000895CF92DF92EF92FF921F93CF93DF9398
:104120006B017C01142F992374F48DE20E94C91E47
:10413000C82FD0E0F094E094D094C094C11CD11C5E
:10414000E11CF11C02C0C0E0D0E021E0412FC7011A
:10415000B6010E94FC1E8C0F9D1FDF91CF911F9115
:10416000FF90EF90DF90CF9008959C01F999FECFDA
:104170009FB7F894F999FECF32BD21BDF89A80B56A
:104180009FBF8F3F09F4862F08959C01F999FECFB8
:104190009FB7F894F999FECF32BD21BDF89A80B54A
:1041A000861719F060BDFA9AF99A9FBF0895FF9299
:1041B0000F931F93CF93DF938C01F62ED72F6FEFC2
:1041C0000E94B520C82F6FEFC80101960E94B5204C
:1041D0002C2F30E0382B2F3F8FEF380719F08C2F22
:1041E000932F02C08F2D9D2FDF91CF911F910F91A3
:1041F000FF9008951F93CF93DF93EC01172F0E9438
:10420000C520612FCE0101960E94C520DF91CF917C
:104210001F910895809102010895823010F48093D7
:1042200002010895662319F0613029F00FC0FC01E6
:10423000859194910895FC01329625913491211530
:10424000310539F4FC0185919491089580E090E066
:104250000895822F932F0895609102010E941221E8
:104260000895DF92EF92FF920F931F93CF93DF9306
:10427000D82E162F042FC9010E942C21EC010E9478
:104280003A207C01612F8D2D0E94AB1D802F90E084
:10429000811B9109E816F90620F4802F8E190E94DF
:1042A0000D20CE010E941D20DF91CF911F910F9113
:1042B000FF90EF90DF9008950F931F93CF93DF93BC
:1042C000D82FCB01C42F0E942C218C016C2F8D2F55
:1042D0000E94AB1DC8010E943A20813840F490E84A
:1042E000981B892F86958C1718F48C2F01C08C2F62
:1042F0000E940D20C8010E941D2080E88C1B0E9496
:104300000D20DF91CF911F910F9108957F928F9291
:104310009F92AF92BF92CF92DF92EF92FF920F9354
:104320001F93CF93DF93782EEB01D42EF22E4B0107
:10433000770FAA08BB08C501B4010E948920C82EC6
:10434000FF2049F01C161D062CF48BE20E94C91EAA
:10435000C80E01C0F12C0115110559F0C8010E94C9
:104360002C21EC01009739F00E943A200496C80EE7
:1043700002C0C0E0D0E06E2D872D0E94AB1D80E80A
:104380008C1530F08C1986958E1518F48E2D01C081
:104390008E2D0E940D20FF2019F08BE20E94BB1D84
:1043A0004D2DC501B4010E946620209731F084E0B4
:1043B0000E94B11FCE010E941D2080E88E190E942C
:1043C0000D20DF91CF911F910F91FF90EF90DF9023
:1043D000CF90BF90AF909F908F907F9008950E9454
:1043E000C61A0E94C9360E94FA2D109280001092BF
:1043F000810080B7806880BFEAE7F0E080818F7736
:104400008083ECEBF0E080818B7F80831092C10091
:104410001CBC0895EF920F93611160E78F3F41F448
:10442000E12C00E020E142E082E00E9463190BC031
:1044300090E2899FA001112440505D4D00E122E0EF
:1044400082E00E94EA190E94201B0F91EF900895CC
:104450000E946B1381E00E94A51F40E06AEF7FE19C
:1044600080E00E945C2180E00E94A51F60E084E063
:104470000E940A2261E083E00E940A220E945012F8
:10448000813121F08132D1F781E0089580E00895F3
:104490000E946B131092250182E080932601809187
:1044A0004D018093240161E085E00E940A22089575
:1044B000CF930E945012882331F1982F9F70807FF4
:1044C000803129F4923009F474C0C0E021C08033F7
:1044D000E1F08032E1F480912501882359F0913098
:1044E00019F09450923040F48091260180FD06C06E
:1044F000C2E005C0C0E003C0C0E001C0C1E086E981
:104500008093250105C0C0E003C0C3E001C0C0E046
:1045100090914D0180912401981709F44CC090931B
:10452000240180912501811112C03091260181E082
:1045300031FB222720F9282795FB992790F9982706
:104540002917D9F182E083278093260138C0815052
:1045500080932501811107C09091260181E0892770
:10456000809326012CC08C3390F43091260181E099
:1045700031FB222720F9282792FB992790F99827C9
:104580002917D9F082E083278093260118C08091F3
:10459000260181FD12C082608093260110C080FD3B
:1045A00002C085E001C086E061E00E940A228C2FF3
:1045B0000CC084E00AC08C2F08C08C2F06C08091EC
:1045C000260181FDECCF8FEFEFCFCF9108957F9241
:1045D0008F929F92AF92BF92CF92DF92EF92FF9213
:1045E0000F931F93CF93DF93782E882379F00E9447
:1045F0006E31F82EA82EB12C0E9440310E94482224
:1046000081E00E94A51F6AE070E20EC00E94533153
:10461000F82EA82EB12C0E9440310E94482281E041
:104620000E94A51F6EE070E240E080E00E945C21E5
:1046300080E00E94A51F772011F08AE001C08EE083
:10464000882ED12CCC24C3940F2EF7E09F2EF02D72
:1046500002C0F82CD12E80E70E94B01DCF2DD0E0F3
:104660006894EE24E4F800E010E020E040E0BE01B1
:1046700082E00E94862180E80E94B01D1C2DCA1590
:10468000DB0509F010E0D11649F0CA15DB0511F081
:10469000892D01C08C2D60E00E940A220E94201BFF
:1046A0000E9458228823E1F38430A1F4CA15DB0567
:1046B00069F00E942822882349F0772021F08F2D6D
:1046C0000E94743103C08F2D0E94593180E00E94F6
:1046D0004A3120C0813041F48F1508F0BBCFFA94E5
:1046E0008F2D0E944031B6CF823049F483E18F157F
:1046F00008F4B0CFF3948F2D0E944031ABCF8330BC
:1047000009F0A8CFF81409F4A4CF882D0E944031F5
:10471000F82CA0CFDF91CF911F910F91FF90EF90D8
:10472000DF90CF90BF90AF909F908F907F90089533
:10473000CF93DF93CDB7DEB7E1970FB6F894DEBF26
:104740000FBECDBF78940E94B62D0E944B120E94DE
:10475000B73604C082E390E00E94EE2F0E944E1B09
:104760008823C1F381E00E944A310E949C1DCE0142
:10477000099698A78FA39C01DC01FE0131968EEF6C
:1047800011928D93E217F307D9F780914E012224FD
:104790002A94280EBB24B3941DA6312CFE017196D9
:1047A000FAA7E9A7F9A5FBA72AA52CA702C01DA770
:1047B000B12C0E945012813209F09BC0E0904E0152
:1047C00060E0CE0141960E944534F0904D0100E03A
:1047D00010E06894882487F805C0ED2C03C0ED2C08
:1047E00001C0ED2CBC88AD889E8840E0BE01675EAC
:1047F0007F4F8B2D0E9422148BE08B8F40E0BE01F7
:10480000645E7F4F8A2D0E942214FE0179966F010B
:10481000512C652DF60181916F010E94B113F0E1D9
:104820005F0E20E55212F5CF892D90E08053984F0E
:104830002C01612C712C40E0C301B2010E94622066
:10484000D82CD81A8FE48D1520F00F2EF0E5DF2E2E
:10485000F02D60E580E00E94AB1D8D2D0E940D20A3
:1048600040E0C301B2010E945E20492D6A2D8B2DCC
:104870000E942036873008F08750E82FF0E0EE0FD6
:10488000FF1FE05EFB4D25913491482D60E582E0ED
:104890000E9431210E94201B0E945012813131F16F
:1048A000813221F1807F803211F400E010E08091AC
:1048B0004D018F1539F00F5F1F4F023692E0190737
:1048C000A8F4F82ED0904E01DE1431F360E08BA5F1
:1048D0009CA50E9445348C89B8127FCF8D89A8127F
:1048E0007ECF8E8998127DCFED2CD6CFBB24B3948A
:1048F00064C7813109F061C70E946B131FA6412C68
:1049000018AA19AAECE04E12FCC080E80E94B01D63
:1049100060E081E00E940A2261E080E00E940A22B9
:10492000FFA5F13099F440E066EC7FE180E00E9461
:104930005C2180E70E94B01D40E162EC7FE182E0F3
:104940000E945C2180E80E94B01D20C18EEC9FE196
:104950000E942C218C010E943A206894EE24E2F8F7
:10496000E80E40E060E070E0CB010E946220F82E8B
:1049700040E061E070E080E090E00E946220F80E8C
:1049800040E060EB70E080E090E00E946220F80E72
:104990008EE20E94C91E880F8F0D282F30E02E0D49
:1049A000311D213831052CF090E8F92EF81AD12C60
:1049B00007C090E8D92EDE18D81AD694FE2CFD0C2C
:1049C00060E080E00E94AB1D8D2D0E940D20C8018B
:1049D0000E941D208F2D0E940D206F2D80E00E94CF
:1049E000AB1D40E060E070E0CB010E945E208EE2F3
:1049F0000E94BB1D40E061E070E080E090E00E941A
:104A00005E208EE20E94BB1D40E060EB70E080E023
:104A100090E00E945E2080E80E940D208AEC9FE1D9
:104A20000E942C218C010E943A206894EE24E2F826
:104A3000E80E40E063E070E080E090E00E946220D9
:104A4000F82E40E065E070E080E090E00E94622097
:104A5000F80E40E062EE77E080E090E00E94622095
:104A6000F80E8EE20E94C91E880F8F0D282F30E0AD
:104A70002E0D311D213631053CF090E7F92EF81A44
:104A80006894DD24D4F807C090E8D92EDE18D81A2F
:104A9000D694FE2CFD0C80E70E94B01D60E182E000
:104AA0000E94AB1D8D2D0E940D20C8010E941D206B
:104AB0008F2D0E940D206F2D82E00E94AB1D40E0E3
:104AC00063E070E080E090E00E945E208EE20E9451
:104AD000BB1D40E065E070E080E090E00E945E2059
:104AE0008EE20E94BB1D40E062EE77E080E090E045
:104AF0000E945E2080E70E940D2080E80E94B01D89
:104B000045C0842D90E08C30910530F5FC01EC5CC3
:104B1000FF4F0C946C3706E210E223C002E210E271
:104B200020C00AE110E21DC006E110E21AC002E155
:104B300010E217C00EE010E214C00AE010E211C04B
:104B40000EE110E20EC006E010E20BC002E010E23F
:104B500008C00EEF1FE105C000E010E002C00AE24D
:104B600010E260E080E00E940A2261E082E00E94A0
:104B70000A2240E0B80180E00E945C21E12C00E0C4
:104B800020E642E060E182E00E9463190E94201B5F
:104B900040E060E080E19EE00E947A13882309F4FF
:104BA00004C6843109F404C6813131F42CE0421684
:104BB00009F401C64394A6CE813251F7842D90E0CA
:104BC0008D30910508F0EEC5FC01E05CFF4F0C94C0
:104BD0006C378FA58F5F8FA7823008F4E3C51FA6BF
:104BE000E1C560E081E00E940A2261E080E00E946D
:104BF0000A2281E00E94A51F40E06AE270E280E0A4
:104C00000E945C2180E00E94A51F80E70E94B01DE9
:104C100040E16EEB7FE182E00E945C2180E80E942F
:104C2000B01D0E94201B40E060E080E090E00E9408
:104C30007A13813249F40E940A218F5F823008F092
:104C400080E00E940D21D5CF813169F70E940A21B1
:104C5000682F80E190E00E94C520A4C5B0904E016D
:104C600060E0CE0181960E94453440E0BE01675E5F
:104C70007F4F8BA10E9422147B8E482DBE01645E63
:104C80007F4F8AA10E9422147E8E482DBE01615E54
:104C90007F4F89A10E942214662009F41CC691E06E
:104CA000991649F0991620F0E2E09E1631F007C0FF
:104CB0005F8E58A210C65D8E0EC65C8E0CC6598ED5
:104CC0005A8E09C6A11006C0F6019081F7018081B5
:104CD000981739F0F6018081F7018083612F0E94D7
:104CE000B113105FFFEFCF1ADF0A2FEFE21AF20ABB
:104CF000103841F70E94201B10914D010E94501264
:104D000090914D01191731F00F5F043118F06824AC
:104D100000E007C0811105C080914E018B1561F341
:104D20009DCF813229F09CED980F923008F05EC043
:104D3000F89460E0CE0181960E94453481E0981697
:104D400041F0981620F092E0991699F01CC019A233
:104D500021C08AA18A3030F090E08A50965F8A3074
:104D6000E0F701C090E0893010F4980F9F5F9AA39C
:104D700011C08AA19AE0980F9C3310F49AA30AC03C
:104D800082538AA307C08BA18F5F883110F48BA355
:104D900001C01BA2682D911060E040E0CE01819619
:104DA0000E949B3478940E94B02FB0904E0160E036
:104DB000CE0181960E94453440E0BE01675E7F4F80
:104DC0008BA10E9422147B8E482DBE01645E7F4F12
:104DD0008AA10E9422147E8E482DBE01615E7F4F03
:104DE00089A10E942214612C00E075C5813109F06F
:104DF00035CFE3E09E1609F4D5C49394B0904E01EC
:104E000060E0CE0181960E94453440E0BE01675EBD
:104E10007F4F8BA10E9422147B8E482DBE01645EC1
:104E20007F4F8AA10E9422147E8E482DBE01615EB2
:104E30007F4F89A10E9422146624639400E02FCF43
:104E4000A12C0DC0612C712C10E0AA24A394812CFC
:104E50001EA60F2EFBE09F2EF02D55245A94B090E5
:104E60004E0160E08BA59CA50E944534FEA5F23062
:104E700030F582E089A341E0BE016D5D7F4F8E89F0
:104E80000E9422148AA35DA2882031F02EA5211150
:104E900002C05BA201C05CA2AA2009F46BC022EF91
:104EA0003FE140E860E580E00E943121E12C00E034
:104EB00020E342E060E582E00E9463195BC040E0CD
:104EC000BE016F5D7F4F8C890E9422149BA240E03F
:104ED000BE016C5D7F4F8D890E942214882069F08D
:104EE0008EA5823029F45CA25DA2AA2021F10FC018
:104EF00059A25AA2AA20F9F00FC0AA20E1F09EA55B
:104F0000923079F0EAEEFFE12E2F3F2F0EC08EEEA9
:104F10009FE1282F392F09C0EAEEFFE12E2F3F2F06
:104F200004C08EEE9FE1282F392F40E860E580E035
:104F30000E94312106C08C89871103C09D89961576
:104F4000C1F07C886D884E89662D872D0E942036A1
:104F5000873008F08750E82FF0E0EE0FFF1FE05E8B
:104F6000FB4D2591349140E860E582E00E943121BB
:104F700001C0782E6E0191E2C90ED11C7E01E9E1DB
:104F8000EE0EF11C00E0A11006C0F6019081F701C1
:104F90008081981739F0F6018081F7018083602FB6
:104FA0000E94B113005FFFEFCF1ADF0A2FEFE21A62
:104FB000F20A003541F70E94201B00914D010E942A
:104FC000501290914D01091739F01F5F143120F0F4
:104FD00091E0892610E008C0811106C080914E0141
:104FE000B81659F3A12C3BCF813229F09CED980FD4
:104FF000923008F052C0F89460E08BA59CA50E9406
:1050000045348EA5813071F018F08230D9F02BC074
:105010008E899AE0980F943610F49E8B31C08A5591
:105020008E8B2EC08E898A3030F090E08A50965F49
:105030008A30E0F701C090E0893010F4980F9F5F4C
:105040009E8B1EC08D898F5F8D3010F48D8B02C0BA
:1050500081E08D8B6E898D890E9409369C89891724
:1050600078F48C8B0DC01C891F5F1C8B1D3140F0A8
:105070006E898D890E940936811710F481E08C8B2E
:1050800040E060E08BA59CA50E949B3478940E9430
:10509000B02F10E0A12C812CE2CE813109F0D0CECE
:1050A0009EA5933009F47EC3913041F46E898D89B9
:1050B0000E9409369C89891708F48C8BEEA5EF5F56
:1050C000EEA710E0AA24A39488248394C8CE60E0BD
:1050D00081E190E00E94B520182F60E081E00E94FD
:1050E0000A2261E080E00E940A2281E00E94A51F5E
:1050F00040E06AE170E280E00E945C2180E00E9472
:10510000A51F80E70E94B01D40E166EF7FE182E0CD
:105110000E945C2180E80E94B01D0E94201B40E09C
:1051200060E080E090E00E947A13813279F41F5FA2
:10513000133008F010E0E12FF0E0EE0FFF1FE6540F
:10514000FF4F859194910E94A61DCFCF813139F7F1
:10515000612F81E190E00E94C52024C30E94D819EC
:1051600060E081E00E940A2261E080E00E940A2261
:10517000AA24A3940F2EFAE0BF2EF02D00914E0129
:1051800060E08BA59CA50E94453441E0BE016F5DA7
:105190007F4F8A890E942214BBA241E0BE016C5D50
:1051A0007F4F89890E9422146E01F9E1CF0ED11C34
:1051B000CE0181967C0118E1A11006C0F601908114
:1051C000F7018081981739F0F7018081F60180831B
:1051D000612F0E94B113105FFFEFCF1ADF0A2FEF8C
:1051E000E21AF20A183641F70E94201B402F61E0B4
:1051F00080E090E00E947A138823B9F0813259F45C
:105200000E94AE138F5F843008F080E00E94A913E3
:10521000AA24A394B3CF813149F70E94AE13682F1B
:1052200082E190E00E94C520BDC2A12CA7CF0E94C0
:10523000D81960E081E00E940A2261E080E00E94CB
:105240000A22F0904E010FEF0F0DB12C512C662465
:105250006394812C992493940F2EFAE07F2EF02DE5
:10526000A92C8EA6F016C9F0682D8BA59CA50E94CE
:105270004534492DBE016F5D7F4F8A890E942214FB
:105280007BA2492DBE016C5D7F4F89890E9422144B
:105290000E944814811105C00F2D552009F426C322
:1052A00002C00F2D592C611021C38FE18B1508F41A
:1052B0001DC31AC0611006C0F6019081F7018081FC
:1052C000981739F0F7018081F6018083612F0E94E1
:1052D000B113105FFFEFCF1ADF0A2FEFE21AF20AC5
:1052E000183641F7582C18C06E0189E1C80ED11C40
:1052F0007E0191E2E90EF11C18E1F60181916F0146
:10530000F70161917F01861721F02B2D412F0E941B
:105310004E14105F183689F70E94201B0E9450120D
:10532000813251F40E9448148F5F853008F08EA5B9
:105330000E944B146A2C0BC0813141F40E94481426
:10534000682F83E190E00E94C5202CC26EA4F090EB
:105350004E01552029F00E9480348695869501C023
:105360008EA5F01209C0611006C05520B9F2B8161A
:10537000A9F2F02E01C0F02EB82E74CF80E00E946A
:10538000E72210C281E00E94E7220CC20E94D035C1
:105390005C010E9448226501F12C0F2EF7E05F2E80
:1053A000F02D942C852CAFE2BDE026010D2C000CD5
:1053B00066087708A30192010E949037DC01CB01B7
:1053C0009058AF4FBF4FBD01992777FD9095892F1A
:1053D000EE24E39402EE1FE121E041E080E00E9430
:1053E000862180E70E94B01DA2E4BFE0A3019201E4
:1053F0000E949037DC01CB019058AF4FBF4FBD01E9
:10540000992777FD9095892F6894EE24E4F806EEAD
:105410001FE121E040E082E00E94862180E80E94B6
:10542000B01D11E0AC14BD0409F010E01F1551F0DF
:10543000AC14BD0411F0882D01C081E060E00E9431
:105440000A22F12E0E9458228823E1F3843081F44D
:10545000492CAC14BD0409F4A5C10E94282288235C
:1054600009F4A0C1C6010E94D5350E94B02F9AC18F
:10547000813089F4F0E1CF16F0E8DF062CF020E16E
:10548000C21AD10880EFC822C114D10409F08BCF11
:105490000E945A1388CF823089F490EFC9169FE793
:1054A000D9062CF4E0E1CE0ED11CF0EFCF22C114CE
:1054B000D10409F078CF0E945A1375CF833009F0D8
:1054C00072CFC8A8D9A86FCF0E9414314C010E9496
:1054D0000F316C010E94482281E00E94A51F40E02C
:1054E00066E070E280E00E945C2180E00E94A51FDF
:1054F0005401F12C0F2EF7E07F2EF02D6F2C01C000
:10550000670180E70E94B01DC601881999098A0DBC
:105510009B1DBC01660F771F880F991F880F991F6D
:10552000880F991F680F791F685F7F4F7595679582
:105530007595679575956795759567956894EE244B
:10554000E4F80EED1FE120E041E082E00E948621B8
:1055500080E80E94B01D11E08A149B0409F010E05D
:10556000161551F08A149B0411F0872D01C081E0BB
:1055700060E00E940A22612E0E94201B0E94582295
:10558000182F0E940F317C01111104C0C816D906D2
:10559000A9F3B6CF143069F48A149B0409F402C14C
:1055A0000E942822882309F4FDC0C5010E941931F8
:1055B000F9C0113089F424EEA2162CEFB2062CF0BB
:1055C00084E0A81AB1089CEFA922A114B10409F043
:1055D00097CF0E945A1394CF123089F4EDE1AE16A2
:1055E000E3E0BE062CF4F4E0AF0EB11C2CEFA222D7
:1055F000A114B10409F084CF0E945A1381CF133053
:1056000009F07ECFA8A8B9A87BCF0E940636D82E75
:105610000E94482281E00E94A51F40E062E070E203
:1056200080E00E945C2180E00E94A51FFD2CC12C1F
:10563000BB24B3940F2EF7E0AF2EF02D80E70E942D
:10564000B01D6F2D70E06894EE24E4F80AED1FE1C0
:1056500020E043E082E00E94862180E80E94B01DA5
:105660001B2DDF1010E01C1549F0DF1411F08A2DFE
:1056700001C08B2D60E00E940A22C12E0E94201BD7
:105680000E9458228823E1F3843061F4DF1409F486
:1056900089C00E942822882309F484C08F2D0E948B
:1056A000F83580C0813021F4FF2041F2FA94C6CF52
:1056B000823031F48DEF8F1508F4C0CFF394BECF54
:1056C000833009F0BBCF0F2EF8E2FF2EF02DB6CFBE
:1056D00060E081E00E940A2261E088E00E940A22E4
:1056E00081E00E94A51F40E06EEF7FE180E00E9414
:1056F0005C2180E00E94A51FF0904E010E94353091
:105700008C0180E70E94B01D9801A9E8B1E40E94D5
:105710007A37DC01CB019058AF4FBF4FBD018827CE
:1057200099276894EE24E4F806ED1FE120E040E0BC
:1057300082E00E94862180E80E94B01D0E94201B0A
:105740004F2D61E080E090E00E947A138823A1F25F
:10575000813231F5E6E6F0E0108180E70E94B01D6D
:1057600040E162ED7FE182E00E945C2180E80E94DE
:10577000B01D0E94201B89E09DE30E945E30815D88
:105780009B438137924008F0B7CFE6E6F0E06081B6
:10579000161709F4B1CF8EEF93E00E94C520ACCF6D
:1057A000813171F60E946B13ADC8BB24B39405C060
:1057B000BB24B39402C0BB24B394A0904E01332009
:1057C00031F00E948034182F1695169501C010E014
:1057D0002A100BC0B11014C0332011F40C94D8233C
:1057E000FDA5F11309C00C94D723B11013C00E947A
:1057F00048148111BFC084C0103220F41DA704C01A
:10580000312C02C01DA6312C2A1008C0BB2009F47F
:105810007AC004C0312C02C01DA6312C60E0CE013C
:1058200041960E94453440E0BE016F5F7F4F8B89F7
:105830000E9422141AE01B8341E0BE016C5F7F4F7F
:105840008A890E9422141E8341E0BE01695F7F4F56
:1058500089890E94221457C0182F09C0CE010196D1
:105860006C01FE0139967F0110E001C0182FF7018D
:1058700081917F01F60161916F01861709F480C063
:105880002DA5412F0E944E1480E1810F105722F365
:105890001DC0FFEFEF1AFF0A0F5F1F4FDD20B4F0AE
:1058A000B11006C0F7019081F8018081981749F086
:1058B0006D2DF80180810E94B113F8018081F701FC
:1058C0008083F0E1DF0E20E8D212E3CF0E94201B9C
:1058D0002A2C0C94D823A12C6E0189E1C80ED11C6E
:1058E0007E0191E1E90EF11C10E0ECC96E01E9E1E5
:1058F000CE0ED11C7E01F1E2EF0EF11C18E1DACCE4
:1059000031103AC08BCF3110A9CF8E010F5F1F4FDE
:10591000CE0109967C01D12CC3CFB0904E0160E03E
:10592000CE0181960E94453440E0BE01675E7F4F04
:105930008BA10E9422141AE01B8F41E0BE01645E1D
:105940007F4F8AA10E9422141E8F41E0BE01615E3A
:105950007F4F89A10E94221400E0AA24A394912CD5
:10596000612C882483940F2EFAE07F2EF02D55248D
:105970005A94B2CF33243394103208F04DCF3ECF37
:1059800080E1810F10570AF471CFA0CFF894E1E6BF
:10599000F0E080E8808381E0808380B7806880BF0A
:1059A00014B817B81AB88EEF85B98FE088B984E6B5
:1059B0008BB90E94F934882379F00E94FD346AB5CE
:1059C0007BB58091B3009091B4000E942F35811176
:1059D00005C00E948F3502C00E948F356FEF8EEF99
:1059E00093E00E94B5208F3F11F08093660061E044
:1059F00080E190E00E94B520823008F080E00E94B3
:105A00000D2160E082E190E00E94B520843008F032
:105A100080E00E94A91360E081E190E00E94B5203F
:105A2000833048F4E82FF0E0EE0FFF1FE654FF4FFD
:105A30008591949102C080E090E00E94A61D60E0F4
:105A400083E190E00E94B520853008F080E00E945C
:105A50004B140E948D2D80E090E008951F920F92CC
:105A60000FB60F9211248F9380912701811106C0E8
:105A7000189904C081E08093270106C08F910F9090
:105A80000FBE0F901F901895F89481E08093270126
:105A90000E94EF218FEA80936400E1E6F0E080E865
:105AA000808383E0808383B7817F866083BF83B7F1
:105AB000816083BFF999FECFE6EBF0E080818F71C2
:105AC000E9F7F894189B09C0189904C006C08150E2
:105AD00011F40DC08EEF1899FACF85B78F7D982FEE
