:020000020000FC
:107E0000F89408E00EBF0FEF0DBFB0D0EDD014B75F
:107E100004BF1EBB112399F0A0D0F89A00B50E390B
:107E200071F45B9A5C9A0FEF4B9B4C9903C00A95D7
:107E3000D9F705C0D9D00093C1000C94000000E828
:107E40000093610001E00093610003E012BD0FEFB9
:107E500001BDF89A00B50F3F11F00093660002E0F3
:107E60000093C0000CE00093C40000E00093C50044
:107E700008E10093C10006E00093C20020E079D041
:107E80000234E9F776D00C34D9F773D00335C1F05A
:107E9000003571F10835A1F76CD0043589F722302F
:107EA00021F401E19BD00EE95DD002E40093C00013
:107EB00068E774E78BD00091C00006FFFCCFBACF13
:107EC00058D00435E9F6223011F401E187D021E0E1
:107ED000332463E774E77AD0E0EFFFE740E10591F0
:107EE0006ED04A95E1F7CBCF65E672E76FD0C7CF8A
:107EF00040D0073429F63DD0203021F00C3F10F45B
:107F0000031529F01FE735D01A95E9F7EDCF30E8D2
:107F1000039FF00130E44FEFCC2747D0002E45D02F
:107F2000CC7111F7102E01E059D032963A95A1F795
:107F30003CD04423C9F6223019F022E00FEF12D0D2
:107F4000E058F04003E04AD005E048D060E777E62B
:107F50003DD0032D34D0339492CF13E012BD1FEFE8
:107F600011BD0895FADF00BDFA9AF99AF999FECF8A
:107F70000895B89B10C0B89A8AB59BB501968ABD82
:107F80009BBD48F48091B3009091B400019680931A
:107F9000B3009093B4000091C00007FFEACF0091B6
:107FA000C000C02B0091C6000895E3DF402768E0C1
:107FB0007FEC440F08F447276A95D9F7089510918C
:107FC000C00015FFFCCF0093C600089502E6F7DF5E
:107FD0000CE6F5DF062FF3DF072FF1CF07BFE8959B
:107FE00017B710FDFDCF089500270AB90BB9089502
:107FF00040FC417465724C75785254436C6F636BEE
:00000001FF
